:100000000C945D000C9485000C9485000C94850084
:100010000C9485000C9485000C9485000C9485004C
:100020000C9485000C9485000C9485000C9485003C
:100030000C9485000C9485000C9485000C9485002C
:100040000C946B0A0C9485000C9480090C945A094A
:100050000C9485000C9485000C9485000C9485000C
:100060000C9485000C9485000000000024002700FB
:100070002A00010204081020408001020408102018
:10008000010204081020040404040404040402020D
:100090000202020203030303030300000000250021
:1000A00028002B00000000080002010000030407E4
:1000B00000000000000000004E1411241FBECFEF0E
:1000C000D8E0DEBFCDBF11E0A0E0B1E0EEE3F3E3A6
:1000D00002C005900D92AE3FB107D9F722E0AEEF16
:1000E000B1E001C01D92A23EB207E1F710E0CDE5FC
:1000F000D0E004C02197FE010E948415CC35D107C1
:10010000C9F70E94400F0C949D190C9400000895AB
:1001100021E0FC012683089521E0FC012583089558
:10012000DC0112968D919C911397DC01ED91FC916D
:100130000084F185E02D0994DC0112968D919C914B
:100140001397DC01ED91FC910480F581E02D099479
:10015000CF93DF93EC01DB01FA01108215968C91AD
:100160001597882309F4AEC016968C9116978D309A
:1001700011F484E008C08A3941F419968C911997DA
:1001800087FF49C083E0808344C08F3C09F443C0AB
:100190008137E1F481E0808317968C91179790E086
:1001A000982F882718962C911897820F911D93836A
:1001B000828319962C91199730E0358324832A8104
:1001C00030E041E08217930711F522C0863919F516
:1001D00082E0808317962C91179730E0322F2227E8
:1001E00018968C911897280F311D33832283199606
:1001F0008C91199790E0958384831A968C911A9725
:1002000086838A8190E041E02817390709F040E0B1
:10021000418381E001C080E016969C91169798304A
:1002200019F48AE080832BC0292F277F203911F40D
:1002300086E003C0213929F587E0808317962C9149
:10024000179730E0322F222718968C911897280F95
:10025000311D3383228319968C91199790E0982F42
:1002600088271A964C91840F911D958384838A81E7
:1002700090E041E02817390709F040E0418381E030
:1002800022C093599230F8F488E0808317968C91BD
:10029000179790E0982F882718962C911897820F1F
:1002A000911D9383828319968C91199790E0982FD2
:1002B00088271A962C91820F911D9583848381E063
:1002C000868301C080E0DF91CF910895FC016283B5
:1002D000089580E008958DE790E008950C9413153B
:1002E0000C940B15EF92FF920F931F93CF93DF9314
:1002F0001F92CDB7DEB78C01603190F4862F90E06D
:10030000089669830E947001482F6981C8010F9087
:10031000DF91CF911F910F91FF90EF900C948A0B7A
:1003200088E0E82EF12CC7010E94700168EF6E0D85
:10033000482FC8010E948A0B8FEFE81AF80A88E15B
:10034000E816F10481F70F90DF91CF911F910F9183
:10035000FF90EF90089560E1FC01838594850C94F3
:1003600072010F931F93CF93603128F5C62F8C0134
:10037000411104C0862F90E060E011C0413021F4AB
:10038000862F90E061E00BC0423021F4862F90E090
:1003900063E005C0433031F4862F90E062E00896B8
:1003A0000E946E016C2FF80183859485CF911F9177
:1003B0000F910C947201CF911F910F9108950F939B
:1003C0001F93CF93DF931F92CDB7DEB7FC01038558
:1003D000148569830E94E40CF8017296C8018E5B53
:1003E0009F4F6981DF0112971C9211961C92108217
:1003F0003396E817F907B1F7613009F585E1F8019F
:10040000808384E1818380E182838FE0838382E142
:10041000848383E185838EE0868382E0878381E124
:10042000808783E0818784E0828785E0838786E018
:10043000848787E0858788E0868789E020C082E01E
:10044000F801808383E0818384E0828385E0838375
:1004500086E0848387E0858388E0868389E08783DC
:1004600085E1808784E1818783E1828782E18387D8
:1004700081E1848780E185878FE086878EE08787AA
:100480000E94E40C60E1C8010F90DF91CF911F91B1
:100490000F910C9472016F927F929F92AF92BF92D4
:1004A000CF92DF92EF92FF920F931F93CF93DF9340
:1004B000CDB7DEB727970FB6F894DEBF0FBECDBF1E
:1004C000DA011496AD90BC901597F50131977097AD
:1004D000F0F4022F3A016B017C01C50107960E94DE
:1004E0007001982EF3011181111113C080E090E08A
:1004F0000E94700190E0D30112962D913C911397C8
:100500008217930709F076C094FC03C073C010E013
:1005100071C01FEF1A0D0023E9F191FE3BC082E08C
:1005200090E00E947001F7012385348582FF0BC0A3
:10053000E12FF0E0CF01880F991FE80FF91FE20FBC
:10054000F31F85E025C083FF0BC0E12FF0E0CF0152
:10055000880F991FE80FF91FE20FF31F8AE018C0F8
:100560008C7059F0412F50E0FA01EE0FFF1FE40F9D
:10057000F51FE20FF31F84E10BC0A12FB0E0FD01D6
:10058000EE0FFF1FAE0FBF1FF901EA0FFB1F83E045
:10059000818B128A92FA222720F9402F612FD701EE
:1005A0001B968D919C911C970E94770BF7012385D8
:1005B0003485812F90E0FC01EE0FFF1F8E0F9F1FEF
:1005C000F901E80FF91F008B89E08983BE82AD82B3
:1005D0000F83D70112968D919C911397DC01ED91B9
:1005E000FC910280F381E02DAE014F5F5F4FB601B9
:1005F0000995182F812F27960FB6F894DEBF0FBEEE
:10060000CDBFDF91CF911F910F91FF90EF90DF90C1
:10061000CF90BF90AF909F907F906F9008958F92F2
:100620009F92AF92BF92CF92DF92FF920F931F9350
:10063000CF93DF93CDB7DEB727970FB6F894DEBF21
:100640000FBECDBF8C016B010E945F0AD8011796C7
:100650008D909D90AD90BC901A97DC01CB018819CC
:100660009909AA09BB0984369105A105B10590F441
:100670001982F80182819381DC01ED91FC91019056
:10068000F081E02DAE014F5F5F4FB60109958111FA
:100690001BC01DC00E945F0AF801678370878187B5
:1006A000928783859485FC0172968E5B9F4FDF0154
:1006B00011972C91222319F020812F5F20833396EC
:1006C000E817F907A1F7D4CF8981811107C0D801B4
:1006D00016968C918111BEC0F12CCEC061E08DE0E8
:1006E0000E94B2098A81882309F440C0898181303F
:1006F000A1F419822D813E812115310521F48983D0
:1007000080E090E006C02130310501F5898381E069
:1007100090E00E9470018F8319C0823039F58D817D
:100720009E81009731F46F8180E090E00E946E011D
:100730000BC0019749F4D801ED91FC910484F58533
:10074000E02D6F81C801099582E08983F8018281DB
:100750009381DC01ED91FC910280F381E02DAE01EB
:100760004F5F5F4FB6010995F82E01C0F12C8981CA
:100770008A3051F5D8011B96ED91FC911C97B896E3
:1007800080E090E020E030E0DF0158976C91082E87
:1007900001C0660F0A94EAF7632B362FA080082E5B
:1007A00001C0AA0C0A94EAF7A22A2A2D01963396D0
:1007B0008830910549F788E190E00E946E016A2D2A
:1007C00089E190E00E946E018981843089F485E09E
:1007D0008983F80182819381DC01ED91FC91028093
:1007E000F381E02DAE014F5F5F4FB6010995F82E02
:1007F0008981863049F421E0AE014F5F5F4FB60139
:10080000C8010E944B02F82E8981873049F420E00C
:10081000AE014F5F5F4FB601C8010E944B02F82E38
:100820008981883081F48A8181110DC021E08F8116
:10083000811101C020E0AE014F5F5F4FB601C801DA
:100840000E944B02F82E60E08DE00E94B209F11088
:1008500013C03DCFF801168285E0898382819381A0
:10086000DC01ED91FC910280F381E02DAE014F5F40
:100870005F4FB6010995F82E8F2D27960FB6F89485
:10088000DEBF0FBECDBFDF91CF911F910F91FF90C3
:10089000DF90CF90BF90AF909F908F9008950F936F
:1008A0001F93CF938C01C62F81E090E00E946E01D0
:1008B000D8011496CC93149712968D919C9113970E
:1008C000DC01ED91FC910680F781E02D6C2FCF913A
:1008D0001F910F9109946F927F929F92AF92BF9256
:1008E000CF92DF92EF92FF920F931F93CF93DF93FC
:1008F0001F92CDB7DEB78C01E62EF42E88E391E08F
:10090000D80111969C938E9315961C92159781E0B1
:1009100016968C9381E090E00E947001882319F074
:10092000F801848309C08FE7D80114968C936FE790
:1009300081E090E00E946E01B0E1EB122FC08AE0EE
:1009400090E00E948A156C01F80184812EE031E06C
:10095000D60111963C932E9312968C93129790E0A9
:10096000905D14969C938E9313978FE615968C93B7
:10097000F601168217821086118680E090E00E94B0
:100980002D0F611571058105910511F00E94DC1490
:10099000D8011396DC92CE9212972CC0B0E2EB12E3
:1009A00015C086E090E00E948A15FC01D8011496DB
:1009B0002C9114978CE191E091838083228330E025
:1009C000305C348323838FE6858310C084E090E01D
:1009D0000E948A15FC01D80114968C9114972AE282
:1009E00031E03183208382838FE683831396FC93E7
:1009F000EE931297F80115860E945F0A643671051E
:100A000081059105C8F380E490E00E948A156C018D
:100A100061E08DE00E94FE09F1E0FF123FC085E138
:100A2000D6018C9384E111968C93119780E11296F4
:100A30008C9312978FE013968C93139782E1149600
:100A40008C93149783E115968C9315978EE01696E8
:100A50008C93169782E017968C93179781E11896DE
:100A60008C93189783E019968C93199784E01A96C3
:100A70008C931A9785E01B968C931B9786E01C96A7
:100A80008C931C9787E01D968C931D9788E01E968B
:100A90008C931E9789E01F968C9321C082E0F6010B
:100AA000808383E0818384E0828385E0838386E0A2
:100AB000848387E0858388E0868389E0878385E176
:100AC000808784E1818783E1828782E1838781E176
:100AD000848780E185878FE086878EE08787D801CD
:100AE0001C96DC92CE921B97F6017296C6018E5B25
:100AF0009F4FDF0112971C9211961C921082339621
:100B0000E817F907B1F760E1C6010E9472010E947F
:100B10005F0AF801678370878187928782E090E09F
:100B20000E94700180FF6FC088E190E00E94700118
:100B3000E82E89E190E00E94700148E0642E712C5B
:100B4000F12CC82ED12C962C68EF660D5301F8E0DD
:100B5000AF1AB108C7010A2C02C0959587950A946F
:100B6000E2F780FF20C0C30169830E9470016981A0
:100B700080FD19C081FD17C082FB222720F941E0CA
:100B8000D8011B968D919C911C970E94770BF801C0
:100B900083859485F501EE0FFF1FEA0DFB1DE80F1D
:100BA000F91F81E0808BC60102C095958795AA94B4
:100BB000E2F780FF20C0C30108960E94700180FD0B
:100BC0001AC081FD18C082FB222720F941E0692D5F
:100BD000D8011B968D919C911C970E94770BF80170
:100BE00083859485F301EE0FFF1FE60DF71DE80FD7
:100BF000F91F81E0808BFFEF6F1A7F0A80E1681692
:100C0000710409F0A0CF0F90DF91CF911F910F9148
:100C1000FF90EF90DF90CF90BF90AF909F907F902C
:100C20006F900895CF93DF93DC01FB01EA01888187
:100C30008130B1F412964C91129750E060E070E070
:100C4000408351836283738385E0858387E986834C
:100C5000178212968C9180878C8181878E8142C009
:100C6000853019F5EB0112964C91129750E060E037
:100C700070E0408351836283738388E0858386EBD1
:100C80008683178212968C91129780878DE08187D8
:100C900013968C91828782E090E00E9470018058C8
:100CA0008B871C8682E08D871EC088508230E8F4D6
:100CB00012964C91129750E060E070E040835183AF
:100CC0006283738385E085838E81811102C084E90C
:100CD00001C083E98683178212968C9180871186E2
:100CE0008C818F5F828781E001C080E0DF91CF91AE
:100CF0000895FC0190818FEB890F863010F4975393
:100D000007C08FE9890F863010F4975501C09053C2
:100D10009295907F81812FEB280F263010F4875316
:100D200007C02FE9280F263010F4875501C08053E3
:100D3000890F0895CF92DF92EF92FF920F931F9346
:100D4000CF93DF936C017A018B01C0E0D0E0CE1528
:100D5000DF0589F0D8016D918D01D601ED91FC91EF
:100D60000190F081E02DC6010995892B11F47E01D7
:100D700002C02196ECCFC701DF91CF911F910F9157
:100D8000FF90EF90DF90CF900895089580E090E07D
:100D90000895FC01538D448D252F30E0842F90E081
:100DA000821B930B541710F0CF9608950197089566
:100DB000FC01918D828D981761F0828DDF01A80F63
:100DC000B11D5D968C91928D9F5F9F73928F90E085
:100DD00008958FEF9FEF0895FC01918D828D9817F4
:100DE00031F0828DE80FF11D858D90E008958FEF31
:100DF0009FEF0895FC01918D228D892F90E0805CFA
:100E00009F4F821B91098F73992708958BE292E07F
:100E10000E94FA0621E0892B09F420E0822F089530
:100E2000FC01848DDF01A80FB11DA35ABF4F2C9187
:100E3000848D90E001968F739927848FA689B78956
:100E40002C93A089B1898C9180648C93938D848D2F
:100E5000981306C00288F389E02D80818F7D8083FE
:100E60000895EF92FF920F931F93CF93DF93EC01BE
:100E700081E0888F9B8D8C8D981305C0E889F98956
:100E8000808185FD24C0F62E0B8D10E00F5F1F4F73
:100E90000F731127E02E8C8DE8120CC00FB607FCE3
:100EA000FACFE889F989808185FFF5CFCE010E94CC
:100EB0001007F1CF8B8DFE01E80FF11DE35AFF4FB4
:100EC000F0820B8FEA89FB898081806207C0EE89FE
:100ED000FF896083E889F98980818064808381E06B
:100EE00090E0DF91CF911F910F91FF90EF900895C7
:100EF000CF93DF93EC01888D8823C9F0EA89FB89C1
:100F0000808185FD05C0A889B9898C9186FD0FC0B7
:100F10000FB607FCF5CF808185FFF2CFA889B9898C
:100F20008C9185FFEDCFCE010E941007E7CFDF91B6
:100F3000CF91089580E090E0892B29F00E94060768
:100F400081110C94000008950F931F93CF93DF93AA
:100F5000DC01FB01EA01888188508230F0F41396AD
:100F60000D911C91149720E030E02E5E3E4E0083E0
:100F700011832283338381E0848384E08583149604
:100F80008C911497868313968C9187838C818F5FC5
:100F900080878E81818781E001C080E0DF91CF91E1
:100FA0001F910F910895FA01108280E00895FC01CD
:100FB000628308958DE790E0089580E090E0AFEFC0
:100FC000BFE0FB0180839183A283B38380E090E044
:100FD000A2E0B8E084839583A683B78380E0089578
:100FE0000F931F93CF93DF93EC01DB01FA01108283
:100FF0000D911D912D913C9113970115110521051E
:10100000310509F4A8C0B901A8014427552771701A
:1010100081E176956795579547958A95D1F7483040
:10102000510591F020F447305105A1F194C04B30A7
:10103000510509F456C04831510509F08CC020FD16
:101040008AC084E080834BC018968C91189790E0FA
:10105000982F882719962C911997820F911D22E0BD
:1010600020831A962C911A9730E0322F22271B9654
:101070004C911B97240F311D358324831C962C9192
:10108000268321E04B815C818417950709F020E0DD
:10109000218325C018962C91189730E0322F2227F3
:1010A00019968C911997280F311D81E080831A962B
:1010B0004C911A9750E0542F44271B968C911B9704
:1010C000480F511D558344831C968C91868381E083
:1010D0004B815C812417350709F080E0818381E032
:1010E0003BC018962C91189730E0322F2227199682
:1010F0008C911997280F311D8B819C8128173907F6
:10110000B9F0A901481B590B4131510520F51A9638
:101110008C91811102C087E001C086E08083338317
:1011200022838B819C81281B390B3583248310C03B
:101130001A968C911A97811102C087E001C086E04F
:101140008083338322831D968C9190E095838483E2
:1011500081E0818301C080E0DF91CF911F910F91E9
:101160000895FC01628370E0705D74836383089569
:1011700080E008958AEF90E008950E94B716CF921C
:10118000DF92EF92FF920F931F93CF93DF937C0137
:10119000EB016A01FA0180818130A9F41E821F826D
:1011A000F7018481888783818987FA0185818A870D
:1011B00084818B8786818C878B010A5F1F4F27E094
:1011C00047E050E067C08530A9F41E821F82F70116
:1011D00084818887838189871A8682E08B8786E469
:1011E0008C8785818D878B010A5F1F4F28E048E13E
:1011F00050E050C0893099F51E821F8282E090E055
:101200000E9470018E010A5F1F4F81FF16C0F60118
:1012100024813581F70183819481820F931F988700
:10122000F6019481F7018381890F8987F601868110
:101230008A8781E08B8726E00FC0F7018481888749
:1012400083818987F60186818A8781E08B87858102
:101250008C8784818D8728E04BE050E01BC088306C
:10126000F9F41E82F70182818F83FA0185818887D4
:101270008481898781E09681911180E08A87F601D7
:1012800086818B871C861D868E010A5F1F4F28E092
:1012900041E150E0BE01C7010E94D60E81E001C0CD
:1012A00080E0DF91CF911F910F91FF90EF90DF9041
:1012B000CF9008951F920F920FB60F9211242F9383
:1012C0003F934F935F936F937F938F939F93AF93CE
:1012D000BF93EF93FF938BE292E00E941007FF9180
:1012E000EF91BF91AF919F918F917F916F915F919E
:1012F0004F913F912F910F900FBE0F901F90189517
:101300001F920F920FB60F9211242F938F939F93DA
:10131000EF93FF93E0913B02F0913C028081E091DA
:101320004102F091420282FD12C0908180914402FC
:101330008F5F8F7320914502821751F0E091440234
:10134000F0E0E55DFD4F958F8093440201C0808100
:10135000FF91EF919F918F912F910F900FBE0F9062
:101360001F90189590E0FC01EC55FF4F3491FC0163
:10137000EE58FF4F2491FC01EA57FF4FE491EE2312
:1013800009F43BC0332339F1333091F038F4313074
:10139000A9F0323001F584B58F7D12C0373091F05D
:1013A0003830A1F03430B9F4809180008F7D03C0D3
:1013B000809180008F77809380000DC084B58F77F7
:1013C00084BD09C08091B0008F7703C08091B000C8
:1013D0008F7D8093B000F0E0EE0FFF1FE656FF4FC9
:1013E000A591B4918FB7F894EC91611103C0209549
:1013F0002E2301C02E2B2C938FBF0895CF93DF9304
:1014000090E0FC01EE58FF4F2491FC01EA57FF4F9A
:101410008491882361F190E0880F991FFC01E859BD
:10142000FF4FC591D491FC01E656FF4FA591B491B1
:10143000611109C09FB7F894888120958223888321
:10144000EC912E230BC0623061F49FB7F894388181
:10145000822F809583238883EC912E2B2C939FBF22
:1014600006C08FB7F894E8812E2B28838FBFDF91B9
:10147000CF9108953FB7F894809127029091280268
:10148000A0912902B0912A0226B5A89B05C02F3F42
:1014900019F00196A11DB11D3FBFBA2FA92F982F9A
:1014A0008827820F911DA11DB11DBC01CD0142E015
:1014B000660F771F881F991F4A95D1F708952FB798
:1014C000F8946091230270912402809125029091FA
:1014D00026022FBF08951F920F920FB60F9211246C
:1014E0002F933F938F939F93AF93BF93809123024A
:1014F00090912402A0912502B091260230912202FF
:1015000023E0230F2D3720F40196A11DB11D05C046
:1015100026E8230F0296A11DB11D2093220280937D
:10152000230290932402A0932502B0932602809177
:10153000270290912802A0912902B0912A020196D7
:10154000A11DB11D8093270290932802A093290228
:10155000B0932A02BF91AF919F918F913F912F91AC
:101560000F900FBE0F901F90189508958EBD00002C
:101570000DB407FEFDCF8EB508958CBD9DBD0895B9
:10158000BF92CF92DF92EF92FF920F931F93CF9370
:10159000DF93CDB7DEB76E970FB6F894DEBF0FBE00
:1015A000CDBF9E012F5F3F4F79012EE1F7011192D0
:1015B0002A95E9F7FC01258140815181628173817F
:1015C000283049F48A019B013D7F0033104C2240B2
:1015D000384109F47CC08C01FC01D480B585A48518
:1015E000C384B2843185208597818681DD2089F18D
:1015F0001F92BF931F92AF931F92CF921F92BF92E1
:101600001F923F931F922F931F929F931F928F932E
:101610001F924F931F925F931F926F93872F8F7329
:101620001F928F938BE991E09F938F93FF92EF929C
:101630000E94C516F801858190E0880F991FFE0170
:10164000E80FF91F2BE32487FE01E80FF91F158629
:1016500036C01F92BF931F92AF931F92CF921F92DB
:10166000BF921F923F931F922F931F929F931F929F
:101670008F93842F8295880F807E1F928F9383E0B3
:1016800076956795579547958A95D1F740561F925D
:101690004F938FEC91E09F938F93FF92EF920E9474
:1016A000C516F801858190E0880F991FFE01E80FAB
:1016B000F91F2BE32087FE01E80FF91F1186C701F0
:1016C0000E941C0D0FB6F894DEBF0FBECDBF6E9604
:1016D0000FB6F894DEBF0FBECDBFDF91CF911F9143
:1016E0000F91FF90EF90DF90CF90BF900895603101
:1016F00080F4E62FF0E061E0222319F0442321F08A
:1017000002C0411101C060E0E80FF91F80810C9414
:10171000B2090895FC0170E0E60FF71F40FD02C01A
:1017200061E001C062E080810C94FE09CF92DF92FB
:10173000FF920F931F93CF93DF931F92CDB7DEB726
:10174000F82E162F042F80E591E079830E94BD0AC0
:1017500060E08091D8020E94B20982E00E94B60A3D
:101760008F2D0E94B60AF12EC12E7981D72E8C2D95
:101770008F19801730F4F60181916F010E94B60A2B
:10178000F6CF61E08091D8020E94B2090F90DF91FC
:10179000CF911F910F91FF90DF90CF900C94B50ADD
:1017A0001F93CF93DF93182F80E591E00E94BD0A2D
:1017B000C8ECD2E060E088890E94B20983E00E9410
:1017C000B60A812F0E94B60A80E00E94B60A182F3E
:1017D00061E088890E94B2090E94B50A812FDF91D9
:1017E000CF911F910895EF92FF920F931F93CF9384
:1017F000DF931F92CDB7DEB7082F162F80E591E05B
:1018000049830E94BD0A88ECE82E82E0F82E60E051
:10181000F70180890E94B20985E00E94B60A802FF4
:101820000E94B60A812F0E94B60A4981842F0E9425
:10183000B60A61E0F70180890E94B2090F90DF913A
:10184000CF911F910F91FF90EF900C94B50ACF9319
:10185000C82F482F60EE8FE00E94F30B8FE00E94AC
:10186000D00B807E91E08C1301C090E0892FCF9146
:101870000895CF92DF92EF92FF92CF93DF9300D043
:1018800000D0CDB7DEB76A01EE24FF242C833B8362
:10189000613089F42C2D2C719C2D937038E0239F9E
:1018A000900D112498609A83A60125E056954795DE
:1018B0002A95E1F70BC09C2D9295990F907E9A8303
:1018C000A60193E0569547959A95E1F7498344E040
:1018D000BE016F5F7F4F0E94960B0F900F900F908D
:1018E0000F90DF91CF91FF90EF90DF90CF90089510
:1018F0001F93CF93DF9300D000D0CDB7DEB7182F62
:101900009A01AB0180E829833A834B835C830E9470
:10191000270C29813A814B815C8181112AC01230C8
:1019200099F038F4112369F01130C1F461E084E0DA
:1019300013C0143079F058F0153081F461E088E17B
:101940000BC061E080E008C061E088E005C061E0B4
:1019500080E102C061E084E10E94390C8091D902EB
:101960000F900F900F900F90DF91CF911F910C94DB
:10197000270C0F900F900F900F90DF91CF911F9138
:1019800008950F931F93CF93DF93082F162F80E5B1
:1019900091E00E94BD0AC8ECD2E060E088890E9414
:1019A000B20982E00E94B60A802F0E94B60A812FF7
:1019B0000E94B60A61E088890E94B209DF91CF9146
:1019C0001F910F910C94B50A8F929F92AF92BF9284
:1019D000CF92DF92EF92FF920E943A0A4B015C0194
:1019E00088EEC82E83E0D82EE12CF12C0E943A0A12
:1019F000DC01CB0188199909AA09BB09883E9340EB
:101A0000A105B10558F021E0C21AD108E108F1089A
:101A100088EE880E83E0981EA11CB11CC114D1046D
:101A2000E104F10419F7FF90EF90DF90CF90BF90A1
:101A3000AF909F908F900895CF93DF93009779F0A8
:101A4000FC0101900020E9F73197AF01481B590BC9
:101A5000BC018BE292E00E949A06EC0102C0C0E059
:101A6000D0E042E050E06BEF71E08BE292E00E9448
:101A70009A068C0F9D1FDF91CF9108957F928F92D0
:101A80009F92AF92BF92CF92DF92EF92FF920F930D
:101A90001F93CF93DF9300D000D0CDB7DEB7C12C1A
:101AA000D12C70E3A72EE0E49E2EF0E58F2E8E0160
:101AB0000F5F1F4FA3E07A2E700EA9829A828B824D
:101AC0007801F701B1907F018B2D0E94D00B982FE8
:101AD000987083FD04C0FF24F394FB0C04C07E10B7
:101AE000F0CFF12C92E0FFEFCF1ADF0A923029F409
:101AF00024E6C216D10409F768C084E6C816D104EA
:101B000009F463C04091CD026EEC72E085E08F0D68
:101B10000E94960B8091D602813029F48091CD02EB
:101B200080648093CD026091CD0284E08F0D0E948D
:101B3000C10C4091C9025091CA026091CB027091D0
:101B4000CC028091C8028130B1F44C835B83AB013D
:101B500066277727942F9C71842F8370E8E09E9FDF
:101B6000800D112488608A8365E0569547956A95B3
:101B7000E1F749830DC0CA0123E0969587952A9520
:101B8000E1F789834295440F407E4A831C821B8281
:101B900044E0B8018F2D0E94960BFA9448E068E06B
:101BA0008F2D0E94F30B00E010E00F5F1F4F8F2D71
:101BB0000E94D00B83FF04C004361105B1F707C0A3
:101BC0000436110521F080E003C086E001C087E003
:101BD0000F900F900F900F90DF91CF911F910F9169
:101BE000FF90EF90DF90CF90BF90AF909F908F903D
:101BF0007F900895CF92DF92FF920F931F93CF9320
:101C0000DF931F92CDB7DEB7F82E162F042F80E595
:101C100091E079830E94BD0A60E08091D8020E9421
:101C2000B20983E00E94B60A8F2D0E94B60AF12EF7
:101C3000C12E7981D72E8C2D8F19801738F480E032
:101C40000E94B60AF60181936F01F5CF61E08091A1
:101C5000D8020E94B2090F90DF91CF911F910F918E
:101C6000FF90DF90CF900C94B50A0F931F93CF9302
:101C7000DF9300D000D0CDB7DEB7182F1092C80286
:101C80001092C9021092CA021092CB021092CC029A
:101C900044E0BE016F5F7F4F0E94FA0D8A819981F7
:101CA000482F50E065E0559547956A95E1F728E0A3
:101CB000929F400D511D1124052E000C660B770BD1
:101CC0004093C9025093CA026093CB027093CC0236
:101CD00083FF29C092E0440F551F661F771F9A9516
:101CE000D1F78370480F511D611D711D762F652F2F
:101CF000542F44278B81480F511D611D711D762F74
:101D0000652F542F44278C81480F511D611D711D73
:101D10004093C9025093CA026093CB027093CC02E5
:101D200081E08093C8028FEF810F0E94D00B082FB3
:101D300084E0810F0E94D00B482F03FF04C081E094
:101D40008093D60202C01092D6024F704093CD020B
:101D50006EEC72E085E0810F0E94FA0D0F900F90FB
:101D60000F900F90DF91CF911F910F9108951F93C6
:101D7000CF93DF9380E591E00E94BD0AC8ECD2E0EA
:101D800060E088890E94B20980EA0E94B60A80E079
:101D90000E94B60A182F61E088890E94B2090E9449
:101DA000B50A812FDF91CF911F910895BF92CF92F5
:101DB000DF92EF92FF920F931F93CF93DF937C01FB
:101DC000EB016A01B22EFC0186819781A085B18565
:101DD000892B8A2B8B2BA1F40E94D71420E030E2B0
:101DE00040E050E00E942115DC01CB018F779F710C
:101DF000AA27BB279360F70186839783A087B187C3
:101E0000A601440F551F416060E070E0BA015527FC
:101E10004427F70186819781A085B185480F591F16
:101E20006A1F7B1F488359836A837B8381E08C838D
:101E3000BD82F8012696DE018A2F8C1B8B1518F4C3
:101E400081918D93F9CFDF91CF911F910F91FF90E9
:101E5000EF90DF90CF90BF900895FC010FB6F894FB
:101E60006091DA027091DB028091DC029091DD02D8
:101E70000FBE309721F0608371838283938308952E
:101E8000CF93DF93CDB7DEB762970FB6F894DEBF7E
:101E90000FBECDBF789484B5826084BD84B5816067
:101EA00084BD85B5826085BD85B5816085BD809125
:101EB0006E00816080936E0010928100809181009D
:101EC0008260809381008091810081608093810095
:101ED000809180008160809380008091B100846057
:101EE0008093B1008091B00081608093B0008091B8
:101EF0007A00846080937A0080917A008260809377
:101F00007A0080917A00816080937A0080917A00D3
:101F1000806880937A001092C100E0913B02F091BA
:101F20003C0282E08083E0913702F0913802108217
:101F3000E0913902F0913A0283E0808310924302EB
:101F4000E0913F02F091400286E08083E0913D0203
:101F5000F0913E02808180618083E0913D02F091AA
:101F60003E02808188608083E0913D02F0913E02D4
:101F7000808180688083E0913D02F0913E02808103
:101F80008F7D808380E090E00E9470018F3F41F45C
:101F900010E060E0812F90E00E946E011F5FF9CF9A
:101FA0008FE190E00E947001982F907C903411F4A2
:101FB00001E001C002E0982F977059F5982F9073B7
:101FC000182F169516951695903149F48EE090E0ED
:101FD0000E948A157C01412F417060E113C090324C
:101FE00049F48EE090E00E948A157C01412F4170F7
:101FF00060E208C08EE090E00E948A157C01412FCB
:10200000417060E0C7010E946B04F0922102E092EF
:1020100020028091200290912102009751F0DC0172
:10202000ED91FC910284F385E02D09958A3F91059D
:1020300011F01AE001C01CE0809120029091210271
:10204000DC01ED91FC910284F385E02D0995FFB64A
:10205000F8948091FE01811127C0E0E9F0E08491BD
:10206000ECE7F0E09491E82FF0E0EE0FFF1FE85965
:10207000FF4FA591B491EC91E92321F461E08AE04E
:102080000E94B20961E08AE00E94FE098CB580617D
:102090008CBD8CB580648CBD61E08DE00E94FE0932
:1020A00061E08BE00E94FE098091FE018F5F8093CA
:1020B000FE01FFBE80E591E00E94BD0A60E08091D4
:1020C000D8020E94B20980EC0E94B60A61E08091B9
:1020D000D8020E94B2090E94B50A83E290E00197FB
:1020E000F1F780E48093D90280E80E94270C8111E7
:1020F000B0C0023059F41B3029F01C3091F413E8C1
:1021000005EE02C014E806EF60E812C01B3029F0AB
:102110001C3059F413E805EE02C014E806EF61E440
:1021200007C013E805EE61E803C013E805EE63E4B9
:102130008AE20E94C10C602F89E20E94C10C612FCB
:1021400088E20E94C10C20E030E0A90161E080E259
:102150000E94390C20E030E0A90161E084E20E9495
:10216000390C20E030E0A90161E080E00E94390CE8
:1021700020E030E0A90160E084E00E94390C20E01A
:1021800030E0A90161E088E00E94390C20E030E0F5
:10219000A90160E080E10E94390C20E030E0A90153
:1021A00061E084E10E94390C20E030E0A90160E0A8
:1021B00088E10E94390C10E360E0812F0E94C10C7D
:1021C00060E080E1810F0E94C10C60E080E2810F3D
:1021D0000E94C10C1F5F1E3379F760E080E60E9409
:1021E000C10C60E080E70E94C10C63E08BE20E94BA
:1021F000C10C6CE38CE00E94C10C60E08DE00E9499
:10220000C10C44E064E680E60E94F30B40E060E627
:1022100080E70E94F30B8091D9020E94270C811164
:1022200018C08091200290912102009769F0DC0192
:10223000ED91FC910288F389E02DBE016F5F7F4F25
:102240000995082F8111D4C21092D90280E00E9412
:10225000270C7E01B7E0EB0EF11C00E468E0B62E1F
:10226000FE013F966F0119821A821B821C821E8218
:102270000E94B70E837009F047C08BE292E00E9483
:10228000FA06892B51F010911F02103208F473C026
:1022900004C0CE0101960E94C00A80912002909154
:1022A0002102009771F1DC01ED91FC910190F08128
:1022B000E02DBE016F5F7F4F0995882311F18E815C
:1022C0009D8149815A816B817C814093C9025093E1
:1022D000CA026093CB027093CC021092D602909304
:1022E000C8028093CD02F701AEECB2E081918D93EC
:1022F000EC15FD05D9F70E943E0DCE0101960E9416
:10230000C00A0E949A07AFCF0E94B70E80FF06C096
:1023100081E60E94350E40E061E007C081FFBDCF3D
:1023200081E70E94350E40E062E08CE20E94F30BF0
:102330008091C9029091CA02A091CB02B091CC02C7
:1023400089839A83AB83BC838091CD028E839091E5
:10235000C8029D83F70120E030E090E0281739079C
:102360000CF097CFD901A853BD4F16964C914193CD
:102370002F5F3F4FF3CF612E712C8BE292E00E94D2
:10238000D806F301E150FE4F80838A3019F08D307A
:1023900009F006C2108210921F028091FF018A3359
:1023A00009F0BCC019821A821B821C821E821D8207
:1023B000D701EB2D1D92EA95E9F780910002833554
:1023C00009F046C081E092E00E947906182F83E070
:1023D00092E00E94790690E055E0959587955A9590
:1023E000E1F7F8E01F9F900111243327820F931F1C
:1023F000092E000CAA0BBB0B89839A83AB83BC8389
:10240000809105028E3409F0D4C146E0642E42E08A
:10241000742E2701D3018C918B3309F4CAC1882310
:1024200009F4C7C18A3009F4C4C18D3009F4C1C1AF
:10243000C3010E947906F20181932F018E818F5F83
:102440008E83F2E06F0E711C4C145D0419F7B1C15C
:10245000883509F0AEC181E092E00E947906A82E8D
:1024600083E092E00E947906482E85E092E00E9487
:102470007906182F87E092E00E9479064A2D50E0F5
:1024800060E070E0742F662755274427512C612C9B
:10249000712C320155244424440D551D661D771DB1
:1024A000480F511D611D711D812F90E0A0E0B0E02B
:1024B000BA2FA92F982F8827480F591F6A1F7B1FF3
:1024C00049835A836B837C8381E08D8380910902E9
:1024D0008E3409F06EC18AE0682E82E0782E2701E2
:1024E000D3018C918B3309F464C1882309F461C151
:1024F0008A3009F45EC18D3009F45BC1C3010E94CA
:102500007906F20181932F018E818F5F8E83F2E035
:102510006F0E711C4C145D0419F74BC18D33A9F477
:1025200060902002709021026114710409F4B5CE0C
:1025300080E092E00E94E514D301ED91FC910484C7
:10254000F585E02D682FC30129C18332A9F480915C
:10255000200290912102009709F49FCEDC01ED91B9
:10256000FC91409101024053609100026053068447
:10257000F785E02D099591CE6FEF71E08EE591E042
:102580000E94BC16892B09F488CE6FEF71E083E6B8
:1025900091E00E94BC16892B71F4809120029091E9
:1025A0002102009709F479CEDC01ED91FC910280C3
:1025B000F381E02D15C06FEF71E087E691E00E9496
:1025C000BC16892B79F4809120029091210200970A
:1025D00009F463CEDC01ED91FC910084F185E02DDE
:1025E00009955BCE6FEF71E08CE691E00E94BC161E
:1025F000892B71F48091200290912102009709F4B7
:102600004CCEDC01ED91FC910480F581E02DE8CF0A
:102610006FEF71E081E791E00E94BC16892B71F4A5
:102620008091200290912102009709F436CEDC01BE
:10263000ED91FC910680F781E02DD2CF6FEF71E034
:1026400085E791E00E94BC16892B21F40093D90202
:1026500080E40BC06FEF71E08AE791E00E94BC1646
:10266000892B31F41092D90280E00E94270C15CEFC
:102670006FEF71E08FE791E00E94BC16892B41F467
:102680008FE190E00E9470018F7C682F60613DC0F7
:102690006FEF71E084E891E00E94BC16892B39F459
:1026A0008FE190E00E947001682F6F7C2EC06FEF69
:1026B00071E089E891E00E94BC16892B41F48FE11A
:1026C00090E00E9470018F7C682F60621EC06FEFE7
:1026D00071E08EE891E00E94BC16892B41F48FE1F5
:1026E00090E00E9470018F73682F60640EC06FEFDE
:1026F00071E082E991E00E94BC16892B69F48FE1B8
:1027000090E00E947001682F6F738FE190E00E944B
:102710006E010C940000C1CD6FEF71E085E991E08E
:102720000E94BC16892BC9F48FE190E00E947001D1
:10273000682F677F8FE190E00E946E0180912002F8
:1027400090912102009709F4A8CDDC01ED91FC9154
:102750000088F189E02D60E021C06FEF71E088E929
:1027600091E00E94BC16892B09F097CD8FE190E093
:102770000E947001682F68608FE190E00E946E01F6
:102780008091200290912102009709F486CDDC010E
:10279000ED91FC910088F189E02D61E009957DCDF6
:1027A0001F5F10931F02E12FF0E0E150FE4F1082F7
:1027B00074CD8E819D8149815A816B817C8140934A
:1027C000C9025093CA026093CB027093CC0210925C
:1027D000D6029093C8028093CD02F701AEECB2E02E
:1027E00081918D93EC15FD05D9F70E943E0D55CDD5
:1027F00029813A814B815C8180E82F87388B498B16
:102800005A8B0E94270C2F85388949895A89811152
:1028100008C061E080E20E94390C8091D9020E94D8
:10282000270C182F29813A814B815C8180E82F8702
:10283000388B498B5A8B0E94270C2F853889498900
:102840005A89811108C061E084E20E94390C8091AC
:10285000D9020E94270C182B09F0F6CC4D815E811D
:102860006F81788580E00E94780C4D815E816F8158
:10287000788582E00E94780C023008F4E5CC498526
:102880005A856B857C8581E00E94780C49855A8544
:102890006B857C8583E00E94780CD6CCCF93DF9348
:1028A000EBE2F2E01382128288EE93E0A0E0B0E067
:1028B00084839583A683B78380E591E091838083A9
:1028C00085EC90E09587848784EC90E097878687F5
:1028D00080EC90E0918B808B81EC90E0938B828BED
:1028E00082EC90E0958B848B86EC90E0978B868BC6
:1028F000118E128E138E148EC8ECD2E08AE0888B73
:1029000061E00E94B20961E08889DF91CF910C9467
:10291000FE098F929F92AF92BF92CF92DF92EF9279
:10292000FF92CF93DF93EC01688179818A819B814B
:10293000611571058105910521F464E279ED8BE55E
:1029400097E02DE133EF41E050E00E94211549016D
:102950005A019B01AC01A7EAB1E40E9440156B014A
:102960007C01ACEEB4EFA50194010E944E15DC0190
:10297000CB018C0D9D1DAE1DBF1DB7FF03C0019780
:10298000A109B04888839983AA83BB83BC01CD0188
:102990009F77DF91CF91FF90EF90DF90CF90BF9026
:1029A000AF909F908F9008950E948914089580E0C1
:1029B00091E00E94891408956093000170930101D1
:1029C00080930201909303010895FC0188279927C1
:1029D000E89421912032E9F3293010F02E30C8F329
:1029E0002B3241F02D3239F4689404C00E94031553
:1029F000820F911D219120532A30C0F31EF490952F
:102A000081959F4F08957AE0979F902D879F802D05
:102A1000910D11240895F999FECF92BD81BDF89AC8
:102A2000992780B50895262FF999FECF1FBA92BD38
:102A300081BD20BD0FB6F894FA9AF99A0FBE01969F
:102A40000895052E97FB1EF400940E94381557FD3B
:102A500007D00E94531507FC03D04EF40C94381590
:102A600050954095309521953F4F4F4F5F4F0895BA
:102A700090958095709561957F4F8F4F9F4F0895EA
:102A80000E947515A59F900DB49F900DA49F800D79
:102A9000911D11240895B7FF0C9440150E94401514
:102AA000821B930B0895A1E21A2EAA1BBB1BFD01EA
:102AB0000DC0AA1FBB1FEE1FFF1FA217B307E4071D
:102AC000F50720F0A21BB30BE40BF50B661F771F75
:102AD000881F991F1A9469F7609570958095909555
:102AE0009B01AC01BD01CF010895A29FB001B39F2E
:102AF000C001A39F700D811D1124911DB29F700D07
:102B0000811D1124911D0895EE0FFF1F0590F49172
:102B1000E02D0994CF93DF938230910510F482E089
:102B200090E0E091E002F091E10220E030E0C0E0CE
:102B3000D0E0309711F14081518148175907C0F01A
:102B40004817590761F482819381209719F09B837C
:102B50008A832BC09093E1028093E00226C0211566
:102B6000310519F04217530718F49A01BE01DF012D
:102B7000EF010280F381E02DDCCF2115310509F151
:102B8000281B390B2430310590F412968D919C91BD
:102B900013976115710521F0FB019383828304C0B3
:102BA0009093E1028093E002FD01329644C0FD0162
:102BB000E20FF31F81939193225031092D933C939F
:102BC0003AC02091DE023091DF02232B41F42091A4
:102BD0000601309107013093DF022093DE0220913D
:102BE0000401309105012115310541F42DB73EB79F
:102BF0004091080150910901241B350BE091DE0240
:102C0000F091DF02E217F307A0F42E1B3F0B281709
:102C1000390778F0AC014E5F5F4F2417350748F055
:102C20004E0F5F1F5093DF024093DE02819391931A
:102C300002C0E0E0F0E0CF01DF91CF9108950F9363
:102C40001F93CF93DF93009709F48CC0FC01329758
:102C5000138212820091E0021091E1020115110528
:102C600081F420813181820F931F2091DE02309107
:102C7000DF022817390779F5F093DF02E093DE02CF
:102C800071C0D80140E050E0AE17BF0750F4129673
:102C90002D913C911397AD012115310509F1D90111
:102CA000F3CF9D01DA013383228360817181860F26
:102CB000971F8217930769F4EC0128813981260F49
:102CC000371F2E5F3F4F318320838A819B819383FF
:102CD0008283452B29F4F093E102E093E00242C0A5
:102CE0001396FC93EE931297ED01499159919E0131
:102CF000240F351FE217F30771F480819181840F4F
:102D0000951F029611969C938E93828193811396C0
:102D10009C938E931297E0E0F0E0D80112968D918B
:102D20009C911397009719F0F8018C01F6CF8D91C3
:102D30009C9198012E5F3F4F820F931F2091DE02DE
:102D40003091DF022817390769F4309729F410927F
:102D5000E1021092E00202C0138212821093DF029D
:102D60000093DE02DF91CF911F910F91089581E0D2
:102D700090E0F8940C949D19FB01DC018D91019079
:102D800080190110D9F3990B0895AEE0B0E0EBEC97
:102D9000F6E10C9474190D891E8986E08C831A83E0
:102DA00009838FEF9FE79E838D83AE01475E5F4F60
:102DB0006F89788DCE0101960E94E8162F813885A3
:102DC000F801E20FF31F10822E96E4E00C949019A4
:102DD000ACE0B0E0EEEEF6E10C9466197C016B011C
:102DE0008A01FC0117821682838181FFBDC1CE0159
:102DF00001964C01F7019381F60193FD859193FFB4
:102E000081916F01882309F4ABC1853239F493FDB8
:102E1000859193FF81916F01853229F4B70190E08C
:102E20000E94D018E7CF512C312C20E02032A0F4A2
:102E30008B3269F030F4803259F0833269F42061CA
:102E40002CC08D3239F0803339F4216026C02260E5
:102E5000246023C0286021C027FD27C030ED380F33
:102E60003A3078F426FF06C0FAE05F9E300D112458
:102E7000532E13C08AE0389E300D1124332E206269
:102E80000CC08E3221F426FD6BC1206406C08C3646
:102E900011F4206802C0883641F4F60193FD859153
:102EA00093FF81916F018111C1CF982F9F7D955420
:102EB000933028F40C5F1F4FFFE3F9830DC0833676
:102EC00031F0833771F0833509F05BC022C0F8011F
:102ED000808189830E5F1F4F44244394512C5401F9
:102EE00015C03801F2E06F0E711CF801A080B180AE
:102EF00026FF03C0652D70E002C06FEF7FEFC501B4
:102F00002C870E94C5182C0183012C852F77222E37
:102F100017C03801F2E06F0E711CF801A080B1807B
:102F200026FF03C0652D70E002C06FEF7FEFC50183
:102F30002C870E94BA182C012C852068222E830130
:102F400023FC1BC0832D90E048165906B0F4B7014E
:102F500080E290E00E94D0183A94F4CFF50127FC6B
:102F6000859127FE81915F01B70190E00E94D01802
:102F700031103A94F1E04F1A51084114510471F79D
:102F8000E5C0843611F0893639F5F80127FF07C00E
:102F900060817181828193810C5F1F4F08C06081C5
:102FA0007181072E000C880B990B0E5F1F4F2F7637
:102FB000722E97FF09C090958095709561957F4F0F
:102FC0008F4F9F4F2068722E2AE030E0A4010E94AC
:102FD0000819A82EA81844C0853729F42F7EB22ED0
:102FE0002AE030E025C0F22FF97FBF2E8F36C1F0E6
:102FF00018F4883579F0B4C0803719F0883721F09B
:10300000AFC02F2F2061B22EB4FE0DC08B2D846077
:10301000B82E09C024FF0AC09F2F9660B92E06C0A3
:1030200028E030E005C020E130E002C020E132E0DD
:10303000F801B7FE07C060817181828193810C5FC6
:103040001F4F06C06081718180E090E00E5F1F4FCE
:10305000A4010E940819A82EA818FB2DFF777F2E27
:1030600076FE0BC0372D3E7FA51450F474FE0AC0C7
:1030700072FC08C0372D3E7E05C0BA2C372D03C028
:10308000BA2C01C0B52C34FF0DC0FE01EA0DF11DB4
:103090008081803311F4397E09C032FF06C0B394B9
:1030A000B39404C0832F867809F0B39433FD13C022
:1030B00030FF06C05A2CB31418F4530C5B18B32C11
:1030C000B31468F4B70180E290E03C870E94D01806
:1030D000B3943C85F5CFB31410F43B1801C0312CE8
:1030E00034FF12C0B70180E390E03C870E94D01803
:1030F0003C8532FF17C031FD03C088E790E002C075
:1031000088E590E0B7010CC0832F867859F031FF35
:1031100002C08BE201C080E237FD8DE2B70190E092
:103120000E94D018A51438F4B70180E390E00E9403
:10313000D0185A94F7CFAA94F401EA0DF11D8081BA
:10314000B70190E00E94D018A110F5CF332009F408
:1031500051CEB70180E290E00E94D0183A94F6CFA9
:10316000F7018681978102C08FEF9FEF2C96E2E1F5
:103170000C948219FC010590615070400110D8F741
:10318000809590958E0F9F1F0895FC0161507040AF
:1031900001900110D8F7809590958E0F9F1F08958C
:1031A0000F931F93CF93DF93FB01238121FD03C076
:1031B0008FEF9FEF28C022FF16C0468157812481E0
:1031C00035814217530744F4A081B1819D012F5FDF
:1031D0003F4F318320838C93268137812F5F3F4F70
:1031E0003783268310C0EB01092F182F0084F18547
:1031F000E02D0995892BE1F68E819F8101969F83B1
:103200008E83812F902FDF91CF911F910F91089581
:10321000FA01AA27283051F1203181F1E8946F9307
:103220006E7F6E5F7F4F8F4F9F4FAF4FB1E03ED0AD
:10323000B4E03CD0670F781F891F9A1FA11D680F4B
:10324000791F8A1F911DA11D6A0F711D811D911D7E
:10325000A11D20D009F468943F912AE0269F1124F3
:103260003019305D3193DEF6CF010895462F477057
:10327000405D4193B3E00FD0C9F7F6CF462F4F70B2
:10328000405D4A3318F0495D31FD4052419302D010
:10329000A9F7EACFB4E0A6959795879577956795B6
:1032A000BA95C9F700976105710508959B01AC01B6
:1032B0000A2E06945795479537952795BA95C9F7DD
:1032C000620F731F841F951FA01D08952F923F92B8
:1032D0004F925F926F927F928F929F92AF92BF9226
:1032E000CF92DF92EF92FF920F931F93CF93DF93D2
:1032F000CDB7DEB7CA1BDB0B0FB6F894DEBF0FBE2F
:10330000CDBF09942A88398848885F846E847D847B
:103310008C849B84AA84B984C884DF80EE80FD807D
:103320000C811B81AA81B981CE0FD11D0FB6F894F3
:0E333000DEBF0FBECDBFED010895F894FFCFB4
:10333E00010000000000E202800000000000F00723
:10334E00BF08BA08B108B80800000000D307A407E8
:10335E00DA07D707DD0700000000A80012066B0190
:10336E0066016901000000000F038C00AB018800AC
:10337E0087009C004F04B101DF01900000000000A7
:10338E0031079A06C9067807FA06D806EC06647560
:10339E006D7000736F64007374617400696E69748C
:1033AE0000707562006C6F6F70006E6F726D006DE5
:1033BE006275730063627573007A627573003136DD
:1033CE006D00386D006C30006C31003A582530328B
:1033DE00582530325825303258253032584E253047
:1033EE003258253032582530325825303258253053
:1033FE003258253032582530325825303258003A5E
:10340E005325303258253032584E2530325825301B
:10341E003258253032582530325825303258253022
:0E342E0032582530325825303258000D0A0031
:00000001FF
