:100000000C945D000C9485000C9485000C94850084
:100010000C9485000C9485000C9485000C9485004C
:100020000C9485000C9485000C9485000C9485003C
:100030000C9485000C9485000C9485000C9485002C
:100040000C94B30D0C9485000C94D40C0C94AE0C51
:100050000C9485000C9485000C9485000C9485000C
:100060000C9485000C9485000000000024002700FB
:100070002A00010204081020408001020408102018
:10008000010204081020040404040404040402020D
:100090000202020203030303030300000000250021
:1000A00028002B00000000080002010000030407E4
:1000B00000000000000000001B1411241FBECFEF41
:1000C000D8E0DEBFCDBF11E0A0E0B1E0E8EDF2E3A3
:1000D00002C005900D92AE3FB107D9F722E0AEEF16
:1000E000B1E001C01D92A23EB207E1F710E0CDE5FC
:1000F000D0E004C02197FE010E945115CC35D107F4
:10010000C9F70E94F90E0C946A190C940000089526
:1001100021E0FC012683089521E0FC012583089558
:10012000DC0112968D919C911397DC01ED91FC916D
:100130000084F185E02D0994DC0112968D919C914B
:100140001397DC01ED91FC910480F581E02D099479
:10015000CF93DF93EC01DB01FA01108215968C91AD
:100160001597882309F4ABC016968C9116978D309D
:1001700011F484E008C08A3941F419968C911997DA
:1001800087FF46C083E0808341C08137E1F481E08E
:10019000808317968C91179790E0982F8827189650
:1001A0002C911897820F911D9383828319962C911D
:1001B000199730E0358324832A8130E041E08217AB
:1001C000930711F522C0863919F582E080831796CE
:1001D0002C91179730E0322F222718968C91189780
:1001E000280F311D3383228319968C91199790E043
:1001F000958384831A968C911A9786838A8190E0DE
:1002000041E02817390709F040E0418381E001C04F
:1002100080E016969C911697983019F48AE08083B6
:100220002BC0292F277F203911F486E003C0213904
:1002300029F587E0808317962C91179730E0322FAD
:10024000222718968C911897280F311D338322830B
:1002500019968C91199790E0982F88271A964C91AF
:10026000840F911D958384838A8190E041E0281753
:10027000390709F040E0418381E022C09359923070
:10028000F8F488E0808317968C91179790E0982F68
:10029000882718962C911897820F911D938382833B
:1002A00019968C91199790E0982F88271A962C917F
:1002B000820F911D9583848381E0868301C080E055
:1002C000DF91CF910895FC016283089580E0089545
:1002D0008DE790E00895603180F4E62FF0E061E072
:1002E000222319F0442321F002C0411101C060E033
:1002F000E80FF91F80810C94060D0895FC0170E051
:10030000E60FF71F40FD02C061E001C062E080819E
:100310000C94520D0C94E0140C94D814EF92FF92AC
:100320000F931F93CF93DF931F92CDB7DEB78C014E
:10033000603190F4862F90E0089669830E948C01CA
:10034000482F6981C8010F90DF91CF911F910F91C4
:10035000FF90EF900C947E0188E0E82EF12CC7010D
:100360000E948C0168EF6E0D482FC8010E947E012B
:100370008FEFE81AF80A88E1E816F10481F70F9088
:10038000DF91CF911F910F91FF90EF90089560E161
:10039000FC01838594850C948E010F931F93CF935A
:1003A000603128F5C62F8C01411104C0862F90E0E2
:1003B00060E011C0413021F4862F90E061E00BC075
:1003C000423021F4862F90E063E005C0433031F4E1
:1003D000862F90E062E008960E948A016C2FF80157
:1003E00083859485CF911F910F910C948E01CF91AD
:1003F0001F910F9108950F931F93CF93DF931F9237
:10040000CDB7DEB7FC010385148569830E94E1073F
:10041000F8017296C8018E5B9F4F6981DF011297C8
:100420001C9211961C9210823396E817F907B1F7C7
:10043000613009F585E1F801808384E1818380E101
:1004400082838FE0838382E1848383E185838EE0EE
:10045000868382E0878381E1808783E0818784E0EF
:10046000828785E0838786E0848787E0858788E0C8
:10047000868789E020C082E0F801808383E0818361
:1004800084E0828385E0838386E0848387E08583BC
:1004900088E0868389E0878385E1808784E181879E
:1004A00083E1828782E1838781E1848780E1858798
:1004B0008FE086878EE087870E94E10760E1C801B0
:1004C0000F90DF91CF911F910F910C948E016F923D
:1004D0007F929F92AF92BF92CF92DF92EF92FF9264
:1004E0000F931F93CF93DF93CDB7DEB727970FB648
:1004F000F894DEBF0FBECDBFDA011496AD90BC906C
:100500001597F50131977097F0F4022F3A016B01BE
:100510007C01C50107960E948C01982EF301118180
:10052000111113C080E090E00E948C0190E0D30193
:1005300012962D913C9113978217930709F076C07C
:1005400094FC03C073C010E071C01FEF1A0D0023AC
:10055000E9F191FE3BC082E090E00E948C01F7013E
:100560002385348582FF0BC0E12FF0E0CF01880F97
:10057000991FE80FF91FE20FF31F85E025C083FFE5
:100580000BC0E12FF0E0CF01880F991FE80FF91F92
:10059000E20FF31F8AE018C08C7059F0412F50E031
:1005A000FA01EE0FFF1FE40FF51FE20FF31F84E1C6
:1005B0000BC0A12FB0E0FD01EE0FFF1FAE0FBF1F5C
:1005C000F901EA0FFB1F83E0818B128A92FA22273E
:1005D00020F9402F612FD7011B968D919C911C977C
:1005E0000E946B01F70123853485812F90E0FC0187
:1005F000EE0FFF1F8E0F9F1FF901E80FF91F008BF1
:1006000089E08983BE82AD820F83D70112968D91D6
:100610009C911397DC01ED91FC910280F381E02D18
:10062000AE014F5F5F4FB6010995182F812F2796B6
:100630000FB6F894DEBF0FBECDBFDF91CF911F91F3
:100640000F91FF90EF90DF90CF90BF90AF909F9071
:100650007F906F900895EF92FF920F931F93CF9327
:10066000DF93CDB7DEB727970FB6F894DEBF0FBE86
:10067000CDBF8C017B011982DC0112968D919C917A
:100680001397DC01ED91FC910190F081E02DAE011A
:100690004F5F5F4F0995811117C0F801868188234C
:1006A00009F49BC0F801168285E0898382819381D9
:1006B000DC01ED91FC910280F381E02DAE014F5FF2
:1006C0005F4FB701099589C08981882331F39A81E9
:1006D000992309F443C08130C9F419822D813E81E8
:1006E0002115310521F4898380E090E006C0213096
:1006F000310531F4898381E090E00E948C018F8381
:10070000D80112968D919C9113971CC0823031F5BF
:100710008D819E81009731F46F8180E090E00E948E
:100720008A010BC0019749F4D801ED91FC91048432
:10073000F585E02D6F81C801099582E08983F80174
:1007400082819381DC01ED91FC910280F381E02DA7
:10075000AE014F5F5F4FB701099501C080E09981FD
:10076000943081F485E08983F80182819381DC01F2
:10077000ED91FC910280F381E02DAE014F5F5F4F60
:10078000B70109959981963041F421E0AE014F5FA0
:100790005F4FB701C8010E9467029981973041F409
:1007A00020E0AE014F5F5F4FB701C8010E946702B2
:1007B0009981983079F49A8191110CC021E08F8150
:1007C000811101C020E0AE014F5F5F4FB701C8014A
:1007D0000E946702882309F460CF27960FB6F89429
:1007E000DEBF0FBECDBFDF91CF911F910F91FF9064
:1007F000EF9008950F931F93CF938C01C62F81E044
:1008000090E00E948A01D8011496CC931497129616
:100810008D919C911397DC01ED91FC910680F781FD
:10082000E02D6C2FCF911F910F9109946F927F92C1
:100830009F92AF92BF92CF92DF92EF92FF920F936F
:100840001F93CF93DF931F92CDB7DEB78C01E62EB7
:10085000F42E88E391E0D80111969C938E9315961F
:100860001C92159781E016968C9381E090E00E948F
:100870008C01882319F0F801848309C08FE7D8011F
:1008800014968C936FE781E090E00E948A01B0E1BA
:10089000EB122FC08AE090E00E9457156C01F8011E
:1008A00084812EE031E0D60111963C932E9312966E
:1008B0008C93129790E0905D14969C938E9313976F
:1008C0008FE615968C93F601168217821086118694
:1008D00080E090E00E94E60E6115710581059105AA
:1008E00011F00E94A914D8011396DC92CE921297AF
:1008F0002CC0B0E2EB1215C086E090E00E945715C4
:10090000FC01D80114962C9114978CE191E091830D
:100910008083228330E0305C348323838FE68583B9
:1009200010C084E090E00E945715FC01D801149695
:100930008C9114972AE231E03183208382838FE601
:1009400083831396FC93EE931297F80115862FB7C5
:10095000F8948091D1029091D202A091D302B091EB
:10096000D4022FBF84369105A105B10580F380E440
:1009700090E00E9457156C0161E08DE00E94520DDD
:10098000F1E0FF123FC085E1D6018C9384E111961E
:100990008C93119780E112968C9312978FE01396A7
:1009A0008C93139782E114968C93149783E1159698
:1009B0008C9315978EE016968C93169782E0179677
:1009C0008C93179781E118968C93189783E019966A
:1009D0008C93199784E01A968C931A9785E01B964E
:1009E0008C931B9786E01C968C931C9787E01D9632
:1009F0008C931D9788E01E968C931E9789E01F9616
:100A00008C9321C082E0F601808383E0818384E0BF
:100A1000828385E0838386E0848387E0858388E022
:100A2000868389E0878385E1808784E1818783E10C
:100A3000828782E1838781E1848780E185878FE0F7
:100A400086878EE08787D8011C96DC92CE921B9712
:100A5000F6017296C6018E5B9F4FDF0112971C92C2
:100A600011961C9210823396E817F907B1F760E1EE
:100A7000C6010E948E012FB7F8948091D102909107
:100A8000D202A091D302B091D4022FBFF801878384
:100A90009087A187B28782E090E00E948C0180FF5E
:100AA0006FC088E190E00E948C01E82E89E190E01F
:100AB0000E948C0148E0642E712CF12CC82ED12CA0
:100AC000962C68EF660D5301F8E0AF1AB108C70124
:100AD0000A2C02C0959587950A94E2F780FF20C002
:100AE000C30169830E948C01698180FD19C081FD69
:100AF00017C082FB222720F941E0D8011B968D9177
:100B00009C911C970E946B01F80183859485F501E7
:100B1000EE0FFF1FEA0DFB1DE80FF91F81E0808B30
:100B2000C60102C095958795AA94E2F780FF20C080
:100B3000C30108960E948C0180FD1AC081FD18C077
:100B400082FB222720F941E0692DD8011B968D9167
:100B50009C911C970E946B01F80183859485F30199
:100B6000EE0FFF1FE60DF71DE80FF91F81E0808BE8
:100B7000FFEF6F1A7F0A80E16816710409F0A0CFB9
:100B80000F90DF91CF911F910F91FF90EF90DF9029
:100B9000CF90BF90AF909F907F906F9008951F93DC
:100BA000CF93DF93DC01FB01EA0118811130B1F42E
:100BB00012964C91129750E060E070E040835183B0
:100BC0006283738385E0858387E986831782129623
:100BD0008C9180878C8181878E8141C0153011F581
:100BE000EB0112964C91129750E060E070E0408368
:100BF00051836283738388E0858386EB86831782C3
:100C000012968C91129780878DE0818713968C9134
:100C1000828782E090E00E948C0180588B871C863E
:100C20001D871EC018501230E8F412964C9112978E
:100C300050E060E070E0408351836283738385E01D
:100C400085838E81811102C084E901C083E9868396
:100C5000178212968C91808711868C818F5F828794
:100C600081E001C080E0DF91CF911F910895FC01E8
:100C700090818FEB890F863010F4975307C08FE96E
:100C8000890F863010F4975501C090539295907F4C
:100C900081812FEB280F263010F4875307C02FE9EE
:100CA000280F263010F4875501C08053890F08950E
:100CB0001F93CF93DF93182F80E591E00E94050EDC
:100CC000CFEBD2E060E088890E94060D83E00E94AD
:100CD000FE0D812F0E94FE0D80E00E94FE0D182F58
:100CE00061E088890E94060D0E94FD0D812FDF9131
:100CF000CF911F910895CF92DF92FF920F931F9390
:100D0000CF93DF931F92CDB7DEB7F82E162F042FA7
:100D100080E591E079830E94050E60E08091CF022A
:100D20000E94060D82E00E94FE0D8F2D0E94FE0D96
:100D3000F12EC12E7981D72E8C2D8F19801730F48A
:100D4000F60181916F010E94FE0DF6CF61E0809166
:100D5000CF020E94060D0F90DF91CF911F910F914E
:100D6000FF90DF90CF900C94FD0DCF92DF92FF9219
:100D70000F931F93CF93DF931F92CDB7DEB7F82E5B
:100D8000162F042F80E591E079830E94050E60E024
:100D90008091CF020E94060D83E00E94FE0D8F2DF0
:100DA0000E94FE0DF12EC12E7981D72E8C2D8F1928
:100DB000801738F480E00E94FE0DF60181936F01E8
:100DC000F5CF61E08091CF020E94060D0F90DF9178
:100DD000CF911F910F91FF90DF90CF900C94FD0D5C
:100DE000EF92FF920F931F93CF93DF931F92CDB794
:100DF000DEB7082F162F80E591E049830E94050E8B
:100E00008FEBE82E82E0F82E60E0F70180890E94E7
:100E1000060D85E00E94FE0D802F0E94FE0D812FA1
:100E20000E94FE0D4981842F0E94FE0D61E0F701B2
:100E300080890E94060D0F90DF91CF911F910F9135
:100E4000FF90EF900C94FD0DCF93C82F482F60EECC
:100E50008FE00E94F0068FE00E945806807E91E0AD
:100E60008C1301C090E0892FCF910895CF92DF922B
:100E7000EF92FF92CF93DF9300D000D0CDB7DEB7D3
:100E80006A01EE24FF242C833B83613089F42C2DEE
:100E90002C719C2D937038E0239F900D1124986045
:100EA0009A83A60125E0569547952A95E1F70BC050
:100EB0009C2D9295990F907E9A83A60193E056956A
:100EC00047959A95E1F7498344E0BE016F5F7F4FF4
:100ED0000E947B060F900F900F900F90DF91CF91A3
:100EE000FF90EF90DF90CF9008951F93CF93DF9303
:100EF00000D000D0CDB7DEB7182F9A01AB0180E843
:100F000029833A834B835C830E94240729813A8199
:100F10004B815C8181112AC0123099F038F4112381
:100F200069F01130C1F461E084E013C0143079F04D
:100F300058F0153081F461E088E10BC061E080E099
:100F400008C061E088E005C061E080E102C061E0C6
:100F500084E10E9436078091D0020F900F900F908D
:100F60000F90DF91CF911F910C9424070F900F9059
:100F70000F900F90DF91CF911F9108950F931F93C2
:100F8000CF93DF93082F162F80E591E00E94050E86
:100F9000CFEBD2E060E088890E94060D82E00E94DB
:100FA000FE0D802F0E94FE0D812F0E94FE0D61E03C
:100FB00088890E94060DDF91CF911F910F910C94AB
:100FC000FD0D8F929F92AF92BF92CF92DF92EF92E0
:100FD000FF920E948E0D4B015C0188EEC82E83E0CB
:100FE000D82EE12CF12C0E948E0DDC01CB0188194A
:100FF0009909AA09BB09883E9340A105B10558F09B
:1010000021E0C21AD108E108F10888EE880E83E0D9
:10101000981EA11CB11CC114D104E104F10419F7FC
:10102000FF90EF90DF90CF90BF90AF909F908F9008
:1010300008957F928F929F92AF92BF92CF92DF924C
:10104000EF92FF920F931F93CF93DF9300D000D0C6
:10105000CDB7DEB7C12CD12C70E3A72EE0E49E2ED5
:10106000F0E58F2E8E010F5F1F4FA3E07A2E700EDA
:10107000A9829A828B827801F701B1907F018B2D32
:101080000E945806982F987083FD04C0FF24F394A3
:10109000FB0C04C07E10F0CFF12C92E0FFEFCF1AD2
:1010A000DF0A923029F424E6C216D10409F768C099
:1010B00084E6C816D10409F463C04091C40265EC0B
:1010C00072E085E08F0D0E947B068091CD02813019
:1010D00029F48091C40280648093C4026091C402A8
:1010E00084E08F0D0E94BE074091C0025091C10262
:1010F0006091C2027091C3028091BF028130B1F44D
:101100004C835B83AB0166277727942F9C71842FD8
:101110008370E8E09E9F800D112488608A8365E0DB
:10112000569547956A95E1F749830DC0CA0123E0BA
:10113000969587952A95E1F789834295440F407EDD
:101140004A831C821B8244E0B8018F2D0E947B06DB
:10115000FA9448E068E08F2D0E94F00600E010E06D
:101160000F5F1F4F8F2D0E94580683FF04C0043667
:101170001105B1F707C00436110521F080E003C066
:1011800086E001C087E00F900F900F900F90DF91E5
:10119000CF911F910F91FF90EF90DF90CF90BF9074
:1011A000AF909F908F907F900895CF93DF9300979B
:1011B00079F0FC0101900020E9F73197AF01481B5D
:1011C000590BBC0182E292E00E94EF09EC0102C0DF
:1011D000C0E0D0E042E050E06BE971E082E292E0F2
:1011E0000E94EF098C0F9D1FDF91CF9108950F93FF
:1011F0001F93CF93DF9300D000D0CDB7DEB7182F69
:101200001092BF021092C0021092C1021092C2024C
:101210001092C30244E0BE016F5F7F4F0E94B5068B
:101220008A819981482F50E065E0559547956A95E8
:10123000E1F728E0929F400D511D1124052E000C6E
:10124000660B770B4093C0025093C1026093C202B9
:101250007093C30283FF29C092E0440F551F661F9D
:10126000771F9A95D1F78370480F511D611D711D2D
:10127000762F652F542F44278B81480F511D611DF8
:10128000711D762F652F542F44278C81480F511DD7
:10129000611D711D4093C0025093C1026093C20250
:1012A0007093C30281E08093BF028FEF810F0E9491
:1012B0005806082F84E0810F0E945806482F03FF2C
:1012C00004C081E08093CD0202C01092CD024F7025
:1012D0004093C40265EC72E085E0810F0E94B50680
:1012E0000F900F900F900F90DF91CF911F910F9162
:1012F00008951F93CF93DF9380E591E00E94050E40
:10130000CFEBD2E060E088890E94060D80EA0E945F
:10131000FE0D80E00E94FE0D182F61E088890E947A
:10132000060D0E94FD0D812FDF91CF911F91089531
:10133000BF92CF92DF92EF92FF920F931F93CF93C2
:10134000DF937C01EB016A01B22EFC01868197815B
:10135000A085B185892B8A2B8B2BA1F40E94A41424
:1013600020E030E240E050E00E94EE14DC01CB01CE
:101370008F779F71AA27BB279360F7018683978396
:10138000A087B187A601440F551F416060E070E05F
:10139000BA0155274427F70186819781A085B18539
:1013A000480F591F6A1F7B1F488359836A837B83B9
:1013B00081E08C83BD82F8012696DE018A2F8C1B8A
:1013C0008B1518F481918D93F9CFDF91CF911F91F7
:1013D0000F91FF90EF90DF90CF90BF900895CF9244
:1013E000DF92EF92FF920F931F93CF93DF936C01E5
:1013F0007A018B01C0E0D0E0CE15DF0589F0D8017D
:101400006D918D01D601ED91FC910190F081E02D5F
:10141000C6010995892B11F47E0102C02196ECCFFB
:10142000C701DF91CF911F910F91FF90EF90DF9057
:10143000CF900895089580E090E00895FC01538DC9
:10144000448D252F30E0842F90E0821B930B54179E
:1014500010F0CF96089501970895FC01918D828D2B
:10146000981761F0828DDF01A80FB11D5D968C91F8
:10147000928D9F5F9F73928F90E008958FEF9FEF03
:101480000895FC01918D828D981731F0828DE80FBF
:10149000F11D858D90E008958FEF9FEF0895FC0179
:1014A000918D228D892F90E0805C9F4F821B910946
:1014B0008F739927089582E292E00E944F0A21E0FB
:1014C000892B09F420E0822F0895FC01848DDF012F
:1014D000A80FB11DA35ABF4F2C91848D90E00196A7
:1014E0008F739927848FA689B7892C93A089B18996
:1014F0008C9180648C93938D848D981306C00288A0
:10150000F389E02D80818F7D80830895EF92FF9293
:101510000F931F93CF93DF93EC0181E0888F9B8D16
:101520008C8D981305C0E889F989808185FD24C0D8
:10153000F62E0B8D10E00F5F1F4F0F731127E02E5B
:101540008C8DE8120CC00FB607FCFACFE889F98938
:10155000808185FFF5CFCE010E94650AF1CF8B8D8A
:10156000FE01E80FF11DE35AFF4FF0820B8FEA896D
:10157000FB898081806207C0EE89FF896083E889EA
:10158000F98980818064808381E090E0DF91CF9150
:101590001F910F91FF90EF900895CF93DF93EC018F
:1015A000888D8823C9F0EA89FB89808185FD05C083
:1015B000A889B9898C9186FD0FC00FB607FCF5CFBD
:1015C000808185FFF2CFA889B9898C9185FFEDCF05
:1015D000CE010E94650AE7CFDF91CF91089580E0A8
:1015E00090E0892B29F00E945B0A81110C94000085
:1015F00008950F931F93CF93DF93DC01FB01EA0162
:10160000888188508230F0F413960D911C911497C4
:1016100020E030E02E5E3E4E008311832283338330
:1016200081E0848384E0858314968C91149786836B
:1016300013968C9187838C818F5F80878E818187C1
:1016400081E001C080E0DF91CF911F910F9108955B
:10165000FA01108280E00895FC01628308958DE70D
:1016600090E0089580E090E0AFEFBFE0FB01808361
:101670009183A283B38380E090E0A2E0B8E084830A
:101680009583A683B78380E008950F931F93CF932C
:10169000DF93EC01DB01FA0110820D911D912D9178
:1016A0003C911397011511052105310509F4A8C0D6
:1016B000B901A80144275527717081E17695679596
:1016C000579547958A95D1F74830510591F020F408
:1016D00047305105A1F194C04B30510509F456C073
:1016E0004831510509F08CC020FD8AC084E0808318
:1016F0004BC018968C91189790E0982F88271996D0
:101700002C911997820F911D22E020831A962C911B
:101710001A9730E0322F22271B964C911B97240FEB
:10172000311D358324831C962C91268321E04B8127
:101730005C818417950709F020E0218325C0189665
:101740002C91189730E0322F222719968C911997F7
:10175000280F311D81E080831A964C911A9750E032
:10176000542F44271B968C911B97480F511D55836E
:1017700044831C968C91868381E04B815C81241785
:10178000350709F080E0818381E03BC018962C91F9
:10179000189730E0322F222719968C911997280F2D
:1017A000311D8B819C8128173907B9F0A901481B8D
:1017B000590B4131510520F51A968C91811102C0C7
:1017C00087E001C086E08083338322838B819C8104
:1017D000281B390B3583248310C01A968C911A97D5
:1017E000811102C087E001C086E0808333832283B9
:1017F0001D968C9190E09583848381E0818301C064
:1018000080E0DF91CF911F910F910895FC016283D9
:1018100070E0705D74836383089580E008958AEFBB
:1018200090E008950E948416CF92DF92EF92FF928B
:101830000F931F93CF93DF937C01EB016A01FA01B1
:1018400080818130A9F41E821F82F70184818887FC
:1018500083818987FA0185818A8784818B87868144
:101860008C878B010A5F1F4F27E047E050E066C07E
:101870008530A1F41E821F82F7019481988793819D
:1018800099871A868B8786E48C8785818D878B0163
:101890000A5F1F4F28E048E150E050C0893099F5B9
:1018A0001E821F8282E090E00E948C018E010A5FFE
:1018B0001F4F81FF16C0F60124813581F701838116
:1018C0009481820F931F9887F6019481F701838199
:1018D000890F8987F60186818A8781E08B8726E0D8
:1018E0000FC0F7018481888783818987F60186810B
:1018F0008A8781E08B8785818C8784818D8728E02A
:101900004BE050E01BC08830F9F41E82F701828161
:101910008F83FA01858188878481898781E0968118
:10192000911180E08A87F60186818B871C861D864F
:101930008E010A5F1F4F28E041E150E0BE01C70160
:101940000E94980981E001C080E0DF91CF911F9152
:101950000F91FF90EF90DF90CF9008951F920F921C
:101960000FB60F9211242F933F934F935F936F9372
:101970007F938F939F93AF93BF93EF93FF9382E2F5
:1019800092E00E94650AFF91EF91BF91AF919F9104
:101990008F917F916F915F914F913F912F910F9018
:1019A0000FBE0F901F9018951F920F920FB60F92B7
:1019B00011242F938F939F93EF93FF93E091320223
:1019C000F09133028081E0913802F091390282FD7A
:1019D00012C0908180913B028F5F8F7320913C02F7
:1019E000821751F0E0913B02F0E0EE5DFD4F958FE4
:1019F00080933B0201C08081FF91EF919F918F9175
:101A00002F910F900FBE0F901F90189590E0FC0142
:101A1000EC55FF4F3491FC01EE58FF4F2491FC012F
:101A2000EA57FF4FE491EE2309F43BC0332339F129
:101A3000333091F038F43130A9F0323001F584B50B
:101A40008F7D12C0373091F03830A1F03430B9F4C6
:101A5000809180008F7D03C0809180008F7780937C
:101A600080000DC084B58F7784BD09C08091B0001F
:101A70008F7703C08091B0008F7D8093B000F0E03D
:101A8000EE0FFF1FE656FF4FA591B4918FB7F89464
:101A9000EC91611103C020952E2301C02E2B2C93B5
:101AA0008FBF0895CF93DF9390E0FC01EE58FF4F76
:101AB0002491FC01EA57FF4F8491882361F190E063
:101AC000880F991FFC01E859FF4FC591D491FC0183
:101AD000E656FF4FA591B491611109C09FB7F894E4
:101AE0008881209582238883EC912E230BC062305D
:101AF00061F49FB7F8943881822F8095832388837F
:101B0000EC912E2B2C939FBF06C08FB7F894E881E1
:101B10002E2B28838FBFDF91CF9108953FB7F89484
:101B20008091D6029091D702A091D802B091D902AB
:101B300026B5A89B05C02F3F19F00196A11DB11D28
:101B40003FBFBA2FA92F982F8827820F911DA11D63
:101B5000B11DBC01CD0142E0660F771F881F991FA0
:101B60004A95D1F708951F920F920FB60F92112444
:101B70002F933F938F939F93AF93BF938091D10205
:101B80009091D202A091D302B091D4023091D502AB
:101B900023E0230F2D3720F40196A11DB11D05C0B0
:101BA00026E8230F0296A11DB11D2093D502809334
:101BB000D1029093D202A093D302B093D402809129
:101BC000D6029091D702A091D802B091D902019685
:101BD000A11DB11D8093D6029093D702A093D80285
:101BE000B093D902BF91AF919F918F913F912F9167
:101BF0000F900FBE0F901F90189508958EBD000096
:101C00000DB407FEFDCF8EB508958CBD9DBD089522
:101C10008F929F92AF92BF92EF92FF920F931F937A
:101C2000CF93DF93CDB7DEB76E970FB6F894DEBFD4
:101C30000FBECDBFFC01CE0101967C018EE1D70124
:101C40001D928A95E9F78581883059F480819181C8
:101C5000A281B381BD7F8033904CA240B84109F48A
:101C6000A4C0218592858681223139F4983629F4E1
:101C700030E7380F323008F498C08F01348140814A
:101C8000518162817381332309F44CC0372F3F7334
:101C90004B01AA24BB24311107C0811005C0863B2B
:101CA00019F49F3609F481C0D8011D96EC911D9757
:101CB0001F92EF931C96EC911C971F92EF931B962B
:101CC000EC911B971F92EF931F929F931F922F935C
:101CD00018969C9118971F929F9317969C911F920C
:101CE0009F931F928F931F924F931F925F931F9208
:101CF0008F921F923F938EE991E09F938F93FF9273
:101D0000EF920E949216F801858190E0880F991F4A
:101D1000FE01E80FF91F2BE32487FE01E80FF91FEE
:101D200015863BC035851F923F9334851F923F93A4
:101D300033851F923F931F929F931F922F939085FD
:101D40001F929F9397811F929F931F928F93842F2F
:101D50008295880F807E1F928F9383E0769567959A
:101D6000579547958A95D1F740561F924F9382ED2C
:101D700091E09F938F93FF92EF920E949216F80149
:101D8000858190E0880F991FFE01E80FF91F2BE372
:101D90002087FE01E80FF91F1186C7010E94D508B0
:101DA0000FB6F894DEBF0FBECDBF6E960FB6F89497
:101DB000DEBF0FBECDBFDF91CF911F910F91FF907E
:101DC000EF90BF90AF909F908F900895FC010FB659
:101DD000F8946091DA027091DB028091DC029091BC
:101DE000DD020FBE309721F060837183828393837D
:101DF0000895CF93DF93CDB7DEB76C970FB6F89405
:101E0000DEBF0FBECDBF789484B5826084BD84B53B
:101E1000816084BD85B5826085BD85B5816085BDE5
:101E200080916E00816080936E001092810080919D
:101E30008100826080938100809181008160809325
:101E40008100809180008160809380008091B1004A
:101E500084608093B1008091B00081608093B00075
:101E600080917A00846080937A0080917A00826009
:101E700080937A0080917A00816080937A008091CB
:101E80007A00806880937A001092C100E09132025B
:101E9000F091330282E08083E0912E02F0912F02D4
:101EA0001082E0913002F091310283E08083109241
:101EB0003A02E0913602F091370286E08083E091A9
:101EC0003402F0913502808180618083E091340298
:101ED000F0913502808188608083E0913402F09136
:101EE0003502808180688083E0913402F091350270
:101EF00080818F7D808380E090E00E948C018F3F05
:101F000041F410E060E0812F90E00E948A011F5FA1
:101F1000F9CF8FE190E00E948C01982F907C903453
:101F200011F401E001C002E0982F977059F5982F45
:101F30009073182F169516951695903149F48EE0EA
:101F400090E00E9457157C01412F417060E113C061
:101F5000903249F48EE090E00E9457157C01412FA9
:101F6000417060E208C08EE090E00E9457157C014D
:101F7000412F417060E0C7010E941604F0922102D7
:101F8000E09220028091200290912102009751F06E
:101F9000DC01ED91FC910284F385E02D09958A3FE7
:101FA000910511F01AE001C01CE08091200290918F
:101FB0002102DC01ED91FC910284F385E02D09956D
:101FC000FFB6F8948091FE01811127C0E0E9F0E0AE
:101FD0008491ECE7F0E09491E82FF0E0EE0FFF1F22
:101FE000E859FF4FA591B491EC91E92321F461E008
:101FF0008AE00E94060D61E08AE00E94520D8CB5D5
:1020000080618CBD8CB580648CBD61E08DE00E94E8
:10201000520D61E08BE00E94520D8091FE018F5FB6
:102020008093FE01FFBE80E591E00E94050E60E016
:102030008091CF020E94060D80EC0E94FE0D61E0AF
:102040008091CF020E94060D0E94FD0D83E290E078
:102050000197F1F780E48093D00280E80E94240782
:102060008111B0C0023059F41B3029F01C3091F4BA
:1020700013E805EE02C014E806EF60E812C01B305A
:1020800029F01C3059F413E805EE02C014E806EFFD
:1020900061E407C013E805EE61E803C013E805EE4C
:1020A00063E48AE20E94BE07602F89E20E94BE07B5
:1020B000612F88E20E94BE0720E030E0A90161E0C4
:1020C00080E20E94360720E030E0A90161E084E26E
:1020D0000E94360720E030E0A90161E080E00E9424
:1020E000360720E030E0A90160E084E00E94360776
:1020F00020E030E0A90161E088E00E94360720E09E
:1021000030E0A90160E080E10E94360720E030E085
:10211000A90161E084E10E94360720E030E0A901D6
:1021200060E088E10E94360710E360E0812F0E94A2
:10213000BE0760E080E1810F0E94BE0760E080E2A0
:10214000810F0E94BE071F5F1E3379F760E080E6B3
:102150000E94BE0760E080E70E94BE0763E08BE25A
:102160000E94BE076CE38CE00E94BE0760E08DE039
:102170000E94BE0744E064E680E60E94F00640E06C
:1021800060E680E70E94F0068091D0020E9424075A
:10219000811118C08091200290912102009769F06E
:1021A000DC01ED91FC910288F389E02DBE016F5FA7
:1021B0007F4F0995082F8111E8C21092D00280E06C
:1021C0000E9424078E01095F1F4FFE013F967F0189
:1021D0005E01F7E1AF0EB11C6BE1262E63E0362EF7
:1021E00019821A821B821C821E820E9479098370C6
:1021F00099F482E292E00E944F0A892B51F0D0902C
:102200001F024FE14D15F0F504C0CE0101960E946A
:10221000080E0E94EF0AE4CF0E94790980FF06C0F1
:1022200081E60E94F70840E061E007C081FFF1CF3E
:1022300081E70E94F70840E062E08CE20E94F0062D
:102240008091C0029091C102A091C202B091C302DC
:1022500089839A83AB83BC838091C4028E839091DF
:10226000BF029D83F80120E030E090E02817390795
:1022700064F6D901A154BD4F16964C9141932F5F3E
:102280003F4FF4CF8D2C912C82E292E00E942D0AD8
:10229000F401E150FE4F80838A3019F08D3009F04F
:1022A00006C2108210921F028091FF018A3309F04A
:1022B000BCC019821A821B821C821E821D8288E089
:1022C000D8011D928A95E9F780910002833509F0C3
:1022D00046C081E092E00E943706D82E83E092E06B
:1022E0000E94370690E055E0959587955A95E1F75D
:1022F000B8E0DB9E900111243327820F931F092E33
:10230000000CAA0BBB0B89839A83AB83BC8380919F
:1023100005028E3409F0D4C146E0C42E42E0D42E2A
:102320004801F60180818B3309F4CAC1882309F47E
:10233000C7C18A3009F4C4C18D3009F4C1C1C601D6
:102340000E943706D4018D934D018E818F5F8E835D
:10235000B2E0CB0ED11C8E149F0419F7B1C18835A1
:1023600009F0AEC181E092E00E943706C82E83E0FA
:1023700092E00E943706482E85E092E00E943706E0
:10238000D82E87E092E00E9437064C2D50E060E0A6
:1023900070E0742F662755274427512C612C712C2F
:1023A000320155244424440D551D661D771D480FE8
:1023B000511D611D711D8D2D90E0A0E0B0E0BA2F80
:1023C000A92F982F8827480F591F6A1F7B1F498301
:1023D0005A836B837C8381E08D83809109028E34E4
:1023E00009F06EC18AE0C82E82E0D82E4801F601BD
:1023F00080818B3309F464C1882309F461C18A3078
:1024000009F45EC18D3009F45BC1C6010E94370634
:10241000D4018D934D018E818F5F8E83B2E0CB0E00
:10242000D11C8E149F0419F74BC18D33A9F4C090B1
:102430002002D0902102C114D10409F4EACE80E038
:1024400092E00E94B214D601ED91FC910484F585CE
:10245000E02D682FC60107C18332A9F480912002C4
:1024600090912102009709F4D4CEDC01ED91FC910A
:102470004091010240536091000260530684F78549
:10248000E02D0995C6CE6FEF71E08EE591E00E94D8
:102490008916892B09F4BDCE6FEF71E083E691E0D8
:1024A0000E948916892B71F480912002909121025B
:1024B000009709F4AECEDC01ED91FC910280F3812E
:1024C000E02D15C06FEF71E087E691E00E9489165C
:1024D000892B79F48091200290912102009709F4D0
:1024E00098CEDC01ED91FC910084F185E02D0995F9
:1024F00090CE6FEF71E08CE691E00E948916892BF7
:1025000071F48091200290912102009709F481CE0C
:10251000DC01ED91FC910480F581E02DE8CF6FEFB7
:1025200071E081E791E00E948916892B71F4809116
:10253000200290912102009709F46BCEDC01ED910D
:10254000FC910680F781E02DD2CF6FEF71E085E737
:1025500091E00E948916892B21F480E48093D002B7
:102560000BC06FEF71E08AE791E00E948916892B1A
:1025700031F41092D00280E00E9424074ACE6FEF1F
:1025800071E08FE791E00E948916892B41F48FE179
:1025900090E00E948C018F7C682F60613DC06FEFDE
:1025A00071E084E891E00E948916892B39F48FE16B
:1025B00090E00E948C01682F6F7C2EC06FEF71E05D
:1025C00089E891E00E948916892B41F48FE190E01F
:1025D0000E948C018F7C682F60621EC06FEF71E0DB
:1025E0008EE891E00E948916892B41F48FE190E0FA
:1025F0000E948C018F73682F60640EC06FEF71E0D2
:1026000082E991E00E948916892B69F48FE190E0BC
:102610000E948C01682F6F738FE190E00E948A0105
:102620000C940000F6CD6FEF71E085E991E00E9417
:102630008916892BD1F48FE190E00E948C01682FDC
:10264000677F8FE190E00E948A0180912002909143
:102650002102009709F4DDCDDC01ED91FC910088A9
:10266000F189E02D60E00995D4CD6FEF71E088E944
:1026700091E00E948916892B09F0CBCD8FE190E083
:102680000E948C01682F68608FE190E00E948A01AF
:102690008091200290912102009709F4BACDDC01CB
:1026A000ED91FC910088F189E02D61E0DCCFD394BD
:1026B000D0921F02ED2DF0E0E150FE4F1082A9CD27
:1026C00049805A806B807C804D814F8B4E81488F32
:1026D00068014701F701D8018D918193EA15FB0547
:1026E000D9F78091200290912102009791F1DC01AD
:1026F000ED91FC910190F081E02DBE016F5F7F4F65
:102700000995882331F18E819D8149815A816B81A0
:102710007C814093C0025093C1026093C2027093C7
:10272000C3021092CD029093BF028093C402E5ECE5
:10273000F2E0D6018D916D018193AE15BF05C9F709
:102740000E941908CE0101960E94080EC10101974E
:10275000F1F74092C0025092C1026092C2027092A0
:10276000C3021092CD024F894093BF02488D40931F
:10277000C402E5ECF2E0D4018D914D018193AA15DC
:10278000BB05C9F70E94190844CD29813A814B81C4
:102790005C8180E8298F3A8F4B8F5C8F0E942407E1
:1027A000298D3A8D4B8D5C8D811108C061E080E2EE
:1027B0000E9436078091D0020E942407182F298199
:1027C0003A814B815C8180E8298F3A8F4B8F5C8FF7
:1027D0000E942407298D3A8D4B8D5C8D811108C094
:1027E00061E084E20E9436078091D0020E942407B3
:1027F000182B09F0E2CC4D815E816F81788580E0F5
:102800000E9475074D815E816F81788582E00E940C
:102810007507023008F4D1CC49855A856B857C85D3
:1028200081E00E94750749855A856B857C8583E028
:102830000E947507C2CCCF93DF93E2E2F2E01382ED
:10284000128288EE93E0A0E0B0E084839583A683B3
:10285000B78380E591E09183808385EC90E0958754
:10286000848784EC90E09787868780EC90E0918B5A
:10287000808B81EC90E0938B828B82EC90E0958B47
:10288000848B86EC90E0978B868B118E128E138E44
:10289000148ECFEBD2E08AE0888B61E00E94060DB7
:1028A00061E08889DF91CF910C94520D8F929F92B5
:1028B000AF92BF92CF92DF92EF92FF92CF93DF93CE
:1028C000EC01688179818A819B816115710581059F
:1028D000910521F464E279ED8BE597E02DE133EF8A
:1028E00041E050E00E94EE1449015A019B01AC0105
:1028F000A7EAB1E40E940D156B017C01ACEEB4EFC8
:10290000A50194010E941B15DC01CB018C0D9D1DBE
:10291000AE1DBF1DB7FF03C00197A109B048888352
:102920009983AA83BB83BC01CD019F77DF91CF91AF
:10293000FF90EF90DF90CF90BF90AF909F908F90DF
:1029400008950E945614089580E091E00E94561464
:1029500008956093000170930101809302019093A8
:1029600003010895FC0188279927E89421912032DA
:10297000E9F3293010F02E30C8F32B3241F02D321C
:1029800039F4689404C00E94D014820F911D2191E3
:1029900020532A30C0F31EF4909581959F4F0895DF
:1029A0007AE0979F902D879F802D910D1124089597
:1029B000F999FECF92BD81BDF89A992780B5089507
:1029C000262FF999FECF1FBA92BD81BD20BD0FB64B
:1029D000F894FA9AF99A0FBE01960895052E97FB7E
:1029E0001EF400940E94051557FD07D00E94201583
:1029F00007FC03D04EF40C94051550954095309586
:102A000021953F4F4F4F5F4F08959095809570955A
:102A100061957F4F8F4F9F4F08950E944215A59F4C
:102A2000900DB49F900DA49F800D911D11240895C9
:102A3000B7FF0C940D150E940D15821B930B089582
:102A4000A1E21A2EAA1BBB1BFD010DC0AA1FBB1FB2
:102A5000EE1FFF1FA217B307E407F50720F0A21B24
:102A6000B30BE40BF50B661F771F881F991F1A9491
:102A700069F760957095809590959B01AC01BD01BB
:102A8000CF010895A29FB001B39FC001A39F700D15
:102A9000811D1124911DB29F700D811D1124911D66
:102AA0000895EE0FFF1F0590F491E02D0994CF9348
:102AB000DF938230910510F482E090E0E091E00233
:102AC000F091E10220E030E0C0E0D0E0309711F179
:102AD0004081518148175907C0F04817590761F4E0
:102AE00082819381209719F09B838A832BC09093D6
:102AF000E1028093E00226C02115310519F042174A
:102B0000530718F49A01BE01DF01EF010280F3813F
:102B1000E02DDCCF2115310509F1281B390B2430BC
:102B2000310590F412968D919C9113976115710562
:102B300021F0FB019383828304C09093E102809390
:102B4000E002FD01329644C0FD01E20FF31F8193C4
:102B50009193225031092D933C933AC02091DE028B
:102B60003091DF02232B41F42091060130910701BF
:102B70003093DF022093DE022091040130910501A1
:102B80002115310541F42DB73EB740910801509110
:102B90000901241B350BE091DE02F091DF02E21700
:102BA000F307A0F42E1B3F0B2817390778F0AC0170
:102BB0004E5F5F4F2417350748F04E0F5F1F50934D
:102BC000DF024093DE028193919302C0E0E0F0E0E7
:102BD000CF01DF91CF9108950F931F93CF93DF9390
:102BE000009709F48CC0FC01329713821282009185
:102BF000E0021091E1020115110581F4208131817B
:102C0000820F931F2091DE023091DF0228173907CF
:102C100079F5F093DF02E093DE0271C0D80140E065
:102C200050E0AE17BF0750F412962D913C911397C8
:102C3000AD012115310509F1D901F3CF9D01DA016B
:102C40003383228360817181860F971F82179307D8
:102C500069F4EC0128813981260F371F2E5F3F4F21
:102C6000318320838A819B8193838283452B29F43E
:102C7000F093E102E093E00242C01396FC93EE93DE
:102C80001297ED01499159919E01240F351FE217CA
:102C9000F30771F480819181840F951F029611963C
:102CA0009C938E938281938113969C938E9312971B
:102CB000E0E0F0E0D80112968D919C911397009777
:102CC00019F0F8018C01F6CF8D919C9198012E5F3F
:102CD0003F4F820F931F2091DE023091DF022817B1
:102CE000390769F4309729F41092E1021092E0025A
:102CF00002C0138212821093DF020093DE02DF9182
:102D0000CF911F910F91089581E090E0F8940C9479
:102D10006A19FB01DC018D91019080190110D9F332
:102D2000990B0895AEE0B0E0E8E9F6E10C944119A2
:102D30000D891E8986E08C831A8309838FEF9FE7B4
:102D40009E838D83AE01475E5F4F6F89788DCE0184
:102D500001960E94B5162F813885F801E20FF31F06
:102D600010822E96E4E00C945D19ACE0B0E0EBEB41
:102D7000F6E10C9433197C016B018A01FC01178286
:102D80001682838181FFBDC1CE0101964C01F701FE
:102D90009381F60193FD859193FF81916F018823C3
:102DA00009F4ABC1853239F493FD859193FF81918C
:102DB0006F01853229F4B70190E00E949D18E7CF9A
:102DC000512C312C20E02032A0F48B3269F030F409
:102DD000803259F0833269F420612CC08D3239F091
:102DE000803339F4216026C02260246023C028602B
:102DF00021C027FD27C030ED380F3A3078F426FF88
:102E000006C0FAE05F9E300D1124532E13C08AE0F5
:102E1000389E300D1124332E20620CC08E3221F4E6
:102E200026FD6BC1206406C08C3611F4206802C0F8
:102E3000883641F4F60193FD859193FF81916F01EE
:102E40008111C1CF982F9F7D9554933028F40C5F4A
:102E50001F4FFFE3F9830DC0833631F0833771F0E4
:102E6000833509F05BC022C0F801808189830E5F41
:102E70001F4F44244394512C540115C03801F2E0F3
:102E80006F0E711CF801A080B18026FF03C0652D74
:102E900070E002C06FEF7FEFC5012C870E9492188F
:102EA0002C0183012C852F77222E17C03801F2E0E8
:102EB0006F0E711CF801A080B18026FF03C0652D44
:102EC00070E002C06FEF7FEFC5012C870E9487186A
:102ED0002C012C852068222E830123FC1BC0832D0E
:102EE00090E048165906B0F4B70180E290E00E94E5
:102EF0009D183A94F4CFF50127FC859127FE819126
:102F00005F01B70190E00E949D1831103A94F1E002
:102F10004F1A51084114510471F7E5C0843611F07D
:102F2000893639F5F80127FF07C0608171818281F8
:102F300093810C5F1F4F08C060817181072E000CC8
:102F4000880B990B0E5F1F4F2F76722E97FF09C0CB
:102F500090958095709561957F4F8F4F9F4F20681A
:102F6000722E2AE030E0A4010E94D518A82EA818DD
:102F700044C0853729F42F7EB22E2AE030E025C0E8
:102F8000F22FF97FBF2E8F36C1F018F4883579F013
:102F9000B4C0803719F0883721F0AFC02F2F2061DF
:102FA000B22EB4FE0DC08B2D8460B82E09C024FF54
:102FB0000AC09F2F9660B92E06C028E030E005C0F9
:102FC00020E130E002C020E132E0F801B7FE07C0A6
:102FD00060817181828193810C5F1F4F06C0608187
:102FE000718180E090E00E5F1F4FA4010E94D51810
:102FF000A82EA818FB2DFF777F2E76FE0BC0372D4D
:103000003E7FA51450F474FE0AC072FC08C0372D30
:103010003E7E05C0BA2C372D03C0BA2C01C0B52C9A
:1030200034FF0DC0FE01EA0DF11D8081803311F4E3
:10303000397E09C032FF06C0B394B39404C0832F15
:10304000867809F0B39433FD13C030FF06C05A2CC4
:10305000B31418F4530C5B18B32CB31468F4B70111
:1030600080E290E03C870E949D18B3943C85F5CFA8
:10307000B31410F43B1801C0312C34FF12C0B70157
:1030800080E390E03C870E949D183C8532FF17C08A
:1030900031FD03C088E790E002C088E590E0B70109
:1030A0000CC0832F867859F031FF02C08BE201C03B
:1030B00080E237FD8DE2B70190E00E949D18A514D3
:1030C00038F4B70180E390E00E949D185A94F7CF3E
:1030D000AA94F401EA0DF11D8081B70190E00E94ED
:1030E0009D18A110F5CF332009F451CEB70180E22D
:1030F00090E00E949D183A94F6CFF701868197815F
:1031000002C08FEF9FEF2C96E2E10C944F19FC0167
:103110000590615070400110D8F7809590958E0F02
:103120009F1F0895FC016150704001900110D8F775
:10313000809590958E0F9F1F08950F931F93CF93A7
:10314000DF93FB01238121FD03C08FEF9FEF28C098
:1031500022FF16C0468157812481358142175307CB
:1031600044F4A081B1819D012F5F3F4F31832083C3
:103170008C93268137812F5F3F4F3783268310C082
:10318000EB01092F182F0084F185E02D0995892B7B
:10319000E1F68E819F8101969F838E83812F902FF0
:1031A000DF91CF911F910F910895FA01AA2728303E
:1031B00051F1203181F1E8946F936E7F6E5F7F4F04
:1031C0008F4F9F4FAF4FB1E03ED0B4E03CD0670F80
:1031D000781F891F9A1FA11D680F791F8A1F911DD3
:1031E000A11D6A0F711D811D911DA11D20D009F423
:1031F00068943F912AE0269F11243019305D319365
:10320000DEF6CF010895462F4770405D4193B3E04D
:103210000FD0C9F7F6CF462F4F70405D4A3318F0F4
:10322000495D31FD4052419302D0A9F7EACFB4E0A5
:10323000A6959795879577956795BA95C9F700975D
:103240006105710508959B01AC010A2E06945795FE
:10325000479537952795BA95C9F7620F731F841F55
:10326000951FA01D08952F923F924F925F926F92EB
:103270007F928F929F92AF92BF92CF92DF92EF9206
:10328000FF920F931F93CF93DF93CDB7DEB7CA1B87
:10329000DB0B0FB6F894DEBF0FBECDBF09942A88B2
:1032A000398848885F846E847D848C849B84AA845A
:1032B000B984C884DF80EE80FD800C811B81AA81E7
:1032C000B981CE0FD11D0FB6F894DEBF0FBECDBFB2
:0832D000ED010895F894FFCF11
:1032D800010000000000E202800000000000450B31
:1032E800140C0F0C060C0D0C00000000280BF90A3A
:1032F8002F0B2C0B320B00000000A800CF05680133
:1033080063016601000000002B038C00C7018800E0
:1033180087009C00FA03CD01FB019000000000002B
:10332800860AEF091E0ACD0A4F0A2D0A410A64755A
:103338006D7000736F64007374617400696E6974F2
:1033480000707562006C6F6F70006E6F726D006D4B
:103358006275730063627573007A62757300313643
:103368006D00386D006C30006C31000D0A003A5861
:1033780025303258253032582530325825303258C9
:103388004E253032582530325825303258253032C3
:1033980058253032582530325825303258253032A9
:1033A80058003A5325303258253032584E2530329D
:1033B8005825303258253032582530325825303289
:0E33C800582530325825303258253032580002
:00000001FF
